:020000040000FA
:2000000000500020310F00005DE20000190F00005FE200005FE200005FE200000000000006
:200020000000000000000000000000005FE200005FE20000000000005FE200005FE20000BC
:20004000713400005FE2000009B900005FE20000D5280000A12F00005FE200005FE2000068
:200060005FE2000029B900005FE200005FE200005FE200005FE200005FE200005FE20000D7
:200080005FE200005FE200005FE200005FE200005FE200005FE200005FE200005FE2000058
:2000A0005FE200005FE200005FE200005FE200005FE200005FE200005FE200005FE2000038
:2000C0005FE2000061400000F7B5254B1B689B073DD50020452102F091FA01200DF10601C2
:2000E00002220FF056FC70B300200DF1060102220FF04FFC38B3BDF8064064BAADF80440E8
:20010000A4B2200B0CF058FE0CF000FA0646C4F30B000F460CF060FE0FA3D3E9002304467E
:200120000D46304639460CF0BDFE02460B46204629460CF0B7FE0DF04FF90A490DF0AAFA68
:200140000DF0F8FB05E001A802210FF02FFC4FF0004003B0F0BD00BF7B14AE47E17A843F94
:20016000740700200000C84208B51D4A03461268032A2BD1421E012A28D81A4A1A49012B4C
:200180001288088810D110B20CF026FE0022174B0CF088FE10A3D3E900230CF083FE00223B
:2001A000134B0CF0CBFC09E00CF006FE00220F4B0CF078FE00220F4B0CF074FE0DF00CF95B
:2001C0000D490DF067FA0DF0B5FB08BD4FF0004008BD00BFAFF300800000000000A0644090
:2001E00098070020C81D0020CA1D00200000F03E00004440000059400000C842AFF30080BD
:2002000070B5514B04461B68002B00F096804F48002106220DF0AAFF14F0380F3ED00EF042
:200220008CF84B4B18601D4601F03EFD28B1494B1B78D90740F1818008E00EF07EF82A689D
:200240006FF009039B1AC342EED4F0E73F4D0120682102F0D3F929463B2006220FF099FB67
:2002600006460020014602F0C9F936B101F012FE202C07D1B5F900000DE0284606210FF0DC
:2002800095FB5AE0102C02D1B5F9020003E0082C4CD1B5F9040001F0ABFC48E062074CD0AA
:2002A0000EF04BF82A4B18601D4601F0FDFC20B1284B1B78DB0740D508E00EF03EF82A6847
:2002C0006FF009039B1AC342EFD4F1E70120682102F094F943201D4906220FF05AFB1B4D88
:2002E000064610B101F0D6FD03E0284606210FF05DFB0020014602F081F9F6B1042C02D1E1
:20030000B5F9000008E0022C02D1B5F9020003E0012C0BD1B5F904000CF05EFD08A3D3E93A
:2003200000230CF0E9FE0DF057F800E000200A490DF0B0F90DF0FEFA70BD4FF0004070BDA4
:200340000000000000606040BC070020D01D0020D43D00209B3500200000C842AFF3008060
:200360002DE9F04F23F0004B91B089460F465BEA0201CDE9022314461D46804606462ED075
:20038000634B29F0004A9A4522DC1FD0604B9B451EDC77D0002F78DB0022049264BB5C4BB4
:2003A0009B4500F091805B4B9B4565D0B5F1804F00F0F983584B9D421ED1002F1CDB4046A3
:2003C000494611B0BDE8F04F0CF024BA0028DDD00AF1404A0AF5801A5AEA060A04D14D495D
:2003E000002011B0BDE8F08F4C4811B0BDE8F04F0CF004BB00210491404649460CF0CAFA79
:20040000E6B9BAF1000F04D0424B27F040429A4214D1002DC0F20884002FE2DA0AF1404AED
:20042000DDF810B00AF5801A5BEA0A0B5ED0049A012AD6D101F100431946D2E7FB0F03F14B
:20044000FF3C049B53EA0C034ED0354B9B456DDD03F104739B4540F3EF83324B9A4540F32F
:200460009C83002D40F39C8327A1D1E9000102460B460CF017FDB4E7002DC0F24B844046E3
:200480004946AEE7002C85D0A2E7274B9B4536DCA3F154739B4540F38D834FEA2B5340F263
:2004A0001342934240F33E84C3F58663033324FA03F202FA03F3A3427FF46EAF02F00102D7
:2004C000C2F10202049269E70AF1404303F58013334384D0134B9A4540F39E83002DC0F23C
:2004E0005F83DDE902017CE74046494602460B460CF024FB02460B460CF0FEFD71E7022318
:2005000004934BE7AFF300809C7500883CE4377E0000F07F0000F03F0000E03FC8FC000001
:200520000000E041FFFFEF3FFFFF3F43BAF5801F80F2EE83AA4B0022CDF804C00CF0B2FC73
:20054000DDF804C08A466FF034034FEA2A55A54ACAF3130AA5F2FF354AF07F541D4492450B
:200560000F9544F4401440F3D0839F4B9A4540F3EF83DDF83CA000250AF1010ACDF83CA0DA
:20058000A4F580142B46994ADB000E931344D3E90067214632463B46CDF804C0CDE90A013A
:2005A0000CF0CCFA3246804689463B46DDE90A010CF0C6FA02460B4600208D490CF09CFD3A
:2005C000CDE90C01DDE90C23404649460CF06AFCCDE90601DDE906AB611041F0005101F5CF
:2005E00000214B190021CDE908AB0891DDE908AB00225046594614461D460CF053FC024633
:200600000B46404649460CF099FA3246804689463B46204629460CF091FA02460B46DDE99C
:200620000A010CF08BFA02460B46504659460CF039FC02460B46404649460CF07FFADDE946
:200640000C230CF02FFC06460F46DDE9060102460B460CF027FC02460B4604460D460CF0EC
:2006600021FC4FA3D3E9002380468946204629460CF018FC4CA3D3E900230CF061FA224685
:200680002B460CF00FFC4AA3D3E900230CF058FA22462B460CF006FC47A3D3E900230CF02C
:2006A0004FFA22462B460CF0FDFB45A3D3E900230CF046FA22462B460CF0F4FB42A3D3E9BC
:2006C00000230CF03DFA02460B46404649460CF0E9FBDDE9062304460D46504659460CF079
:2006E0002FFA32463B460CF0DDFB22462B460CF027FA5246804689465B46504659460CF00F
:20070000D1FB00223B4BCDE90A010CF019FA42464B460CF015FA08980D46044622462B465B
:20072000504659460CF0BEFB224682468B462B46304639460CF0B6FB002206460F46204692
:2007400029462C4B0CF0FAF9DDE90A230CF0F6F902460B46404649460CF0F0F9DDE9062364
:200760000CF0A0FB02460B46304639460CF0E8F98046894642464B46504659460CF0E0F9BF
:2007800013A3D3E9002308980D4604460CF08AFB11A3D3E90023CDE90601204629462BE0D6
:2007A000EF4E454A287ECA3F65DBC9934A86CD3F01411DA96074D13F4D268F515555D53F49
:2007C000FFAB6FDBB66DDB3F033333333333E33F000000E009C7EE3FF5015B14E02F3EBE77
:2007E000000040438E98030079B60B0008FB00000000F03F000008400CF054FB524606466A
:200800000F465B46204629460CF098F902460B46404649460CF092F99FA3D3E900230CF02E
:2008200041FB02460B46304639460CF089F9DDF838A0AB4B5344D3E900230CF081F9824619
:200840000F988B460CF0C8FA0E9AA64B04461344D3E900670D4652465B46DDE906010CF0B0
:200860006FF932463B460CF06BF922462B460CF067F9089822462B46804689460CF05EF921
:2008800032463B460CF05AF9DDE906230CF056F902460B46504659460CF050F9DDF804C02A
:2008A00082468B46049900224B1E53EA0C030CBF8D4B8E4BDDE90201CDE90823DDE902231A
:2008C000CDE9042300230493DDE904452B4622460CF034F942464B460CF0E4FA5246064699
:2008E0000F465B46DDE902010CF0DCFA02460B46304639460CF024F942464B4682468B460E
:20090000204629460CF0CEFA06460F463B465046594632460CF014F9754B80469942894636
:200920000D4640F34B8101F13F4303F5E003034340F012825AA3D3E90023504659460CF0FF
:20094000FFF83246CDE902013B46404649460CF0F5F802460B46DDE902010CF033FD00283A
:2009600040F00882CC464FEA2C53A3F2FE334FF4801018412844C0F30A515E4AA1F2FF331A
:2009800042FA03FEC1F58261C0F3130420EA0E03033144F4801040FA01F1002D0491BCBF37
:2009A000494204910022304639460CF0C7F806460F463246504659463B460CF0C1F8049A23
:2009C00012050292002438A3D3E9002320460D460CF068FA3246804689463B462046294614
:2009E0000CF0ACF802460B46504659460CF0A6F82FA3D3E900230CF055FA2FA3D3E9002342
:200A000006460F46204629460CF04CFA02460B46304639460CF094F806460F4632463B466E
:200A2000404649460CF08CF842464B4604460D460CF084F802460B46304639460CF07EF8F3
:200A4000224682468B4620462B4629460CF02AFA1BA3D3E9002306460F460CF023FA1AA31B
:200A6000D3E900230CF06AF832463B460CF01AFA17A3D3E900230CF063F832463B460CF04B
:200A800011FA15A3D3E900230CF058F832463B4632E000BFAFF30080FD033ADC09C7EE3F69
:200AA000FE822B654715973C00000000432EE63FEF39FAFE422EE63F396CA80C615C20BEB8
:200AC000D0A4BE726937663EF16BD2C541BDBB3E2CDE25AF6A56113F93BDBE166CC1663F60
:200AE000F8FA0000E8FA00000000F0BF0000F03FFFFF8F40FFFF0F000CF0D4F9ACA3D3E996
:200B000000230CF01DF832463B460CF0CBF902460B46204629460CF011F806460F4632465C
:200B20003B46204629460CF0BDF9002280468946304639464FF080430CF000F802460B4672
:200B4000404649460CF0D8FA524606460F4620465B4629460CF0A6F952465B460BF0F0FF45
:200B600002460B46304639460BF0E8FF22462B460BF0E4FF02460B4600209B490BF0DEFFD9
:200B8000029C02460C44B4F5801FC0F237812346DDE908010CF086F923E4002DFFF664AC81
:200BA000002000211DE44046494642464B460CF079F916E400210491FFF7F0BB8B4B21F01F
:200BC000004C9C4540F3BD8001F17D5303F53C1303F55053034340F0DB8032463B46CDF845
:200BE00004C00BF0ABFF02460B46504659460CF0D5FBDDF804C000283FF4B5AEDDE90801CC
:200C00006DA3D3E900230CF04DF96BA3D3E900230CF048F9FFF7E5BB002DC1DA039B0298E3
:200C200003F10041FFF7DDBB02460B4600206E490CF062FAFFF7F0BB6D4B9A45ADDD6A4BB2
:200C40009A453FF70EAC0022674BCDF804C00BF075FF5BA3D3E9002304460D460CF022F968
:200C600059A3D3E9002306460F46204629460CF019F9224682468B462B46204629460CF0D2
:200C800011F900228046894620462946594B0CF009F902460B464EA1D1E900010BF04EFF91
:200CA00022462B460CF0FEF802460B46002052490BF044FF02460B46404649460CF0F2F843
:200CC00045A3D3E900230CF0EDF802460B46504659460BF033FF04460D4622462B46304685
:200CE00039460BF02DFF002032463B46804689460BF024FF02460B46204629460BF01EFFFC
:200D0000DDF804C082468B46CCE500252B463AE400231AE442464B46002033490CF0ECF985
:200D2000FFF75FBB002C7FF465ABC3F5826303334BFA03F202FA03F35B4565D00494FFF792
:200D400032BB2D4B9C453FF70EAE049B029339E64FF48025012316E421A3D3E90023DDE999
:200D600008010CF09FF81EA3D3E900230CF09AF8FFF737BBDDE9080119A3D3E900230CF05B
:200D800091F817A3D3E900230CF08CF8FFF729BB09A3D3E90023DDE908010CF083F806A35D
:200DA000D3E900230CF07EF8FFF71BBBAFF300803E5555555555C53F59F3F8C21F6EA501D0
:200DC000000000604715F73F44DF5DF80BAE543E555555555555D53FFE822B654715F73FAA
:200DE0009C7500883CE4377E0000F03FFFCB9040FEFFEF3F0000D03F0000E03F049A00F0D5
:200E00000BF802460B46C3E602F00102C2F102020492FFF7C8BA00BFC1F30A532DE9F041BC
:200E2000904606460F460A461BBB21F00043034334D0354B00220CF035F8344B0646984504
:200E40000F463BDBC1F30A53363B0A46434440F2FE718B4216DD28A1D1E9000132463B46F0
:200E60000BF05EFE24A3D3E900230CF01BF8BDE8F08140F2FF74A34227D0434440F2FE71A7
:200E80008B42E8DC002B0BDD22F0FF4222F4E00242EA035730463946BDE8F081BDE8F081BC
:200EA00013F1350F17DA4CF250339845D3DC14A1D1E9000132463B460BF032FE10A3D3E9A9
:200EC00000230BF0EFFFBDE8F08102460B460BF037FEBDE8F08122F0FF4222F4E00236335D
:200EE00042EA0357304639460022094B0BF0DAFFBDE8F081AFF300809C7500883CE4377E87
:200F000059F3F8C21F6EA50100005043B03CFFFF0000903CAFF30080044B1A68B2F5806FC6
:200F200003D01B689B0500D4FEE7704728ED00E008B508F05FFB00230B4A0C499818884200
:200F400004D20B49595899500433F5E709480A494FF000028842B8BF40F8042BFADB00F068
:200F600077F9FFF7D9FF08BD00000020B206002044020100B806002010450020074B3F2229
:200F800010B51A70064C50225A700223238001F02FFE044A00232380137010BD603F00206B
:200FA0004C3F00208437002070B5048840F25D16B44205461CD0B4F5AF7F0ED2A4B92E4B9B
:200FC00020461C702D4B5B6998472D4B85211868224603F07BFE2E8041E0B4F5B77F0FD005
:200FE00040F27B139C423CD000232B80032070BD852934D1234B01219B688120984703E080
:2010000021480DF0CDFA50B31B4B1B7843B91E4880210DF0AAFAFFF7B1FF4FF4B7731DE0F3
:20102000164B01205B69984718480DF08FF9184C04F1600614F8022C237C52B1012B08D8FF
:2010400020200DF07CF9204606F072FE0A200DF076F92034B442EDD140F27B132B800120E8
:2010600070BD0C4B1B788B42F6D1064B9A42F3D11E200DF0E3FDEFE77435002078FC0000A6
:20108000380C002088FB0000E8060020D0FC0000FA3D0020FA44002030B5164A85B0034617
:2010A00000F1100553F8041BAB4242F8041BF9D103466C4618685968224603C20833AB421F
:2010C0001446F7D10C4B012468460C491C700DF01AFB00216846224603F074FF1E20694647
:2010E00006F084FF18B1034940220DF0F5FB05B030BD00BFA41D002074350020583F002051
:2011000008B54FF4E13001F08BFC0448002103F005FEBDE80840024801F064BD80040020F6
:201120002511000030B52D4C85B02378212B21D161782B4802F0D0FF2A4B002119802A4B5C
:2011400019706378502B39D1102268460DF00EF854F8020F6B46616803C3244802F0BCFF0D
:20116000684606F0E5FD0A200DF0E9F86846FFF793FF23E03F2B21D11D48617802F0ACFF71
:2011800063784D2B15D1212323700023194A0234995C194A080901F00F01805C01338A5C23
:2011A000082B20706270F1D10E4B12221A8001F01FFD0C4A002313800B4A13700F4C104A0B
:2011C00004F11005234603CBAB42106051601C4602F10802F6D105B030BD00BF603F00207A
:2011E000FDFC00004C3F00208437002023FD000033FD0000583F002053FD0000683F002052
:20120000B41D002008B50D480D4910220CF09EFE78B90C4802F060FF094806F089FD0A48B6
:2012200002F05AFF094806F083FD0A200DF087F801E001F0DDFC002008BD00BFB41D0020B6
:20124000683F002064FD000098FD0000783F00202DE9F041774C86B0236877485B6801218B
:201260009847236801210A461B68734898470EF0E2F802F015F902F0ADF800F051FF02F0D4
:20128000E5F800F093F96D4B01201860A3F58043043B186003F5005324331B680CF0E0FF92
:2012A0000EF0CDF801F096FA01F034FA0DF087F901F070FB03F0A8FC41F234200DF040F99E
:2012C00001F00CFE03F0C0FD5D480DF03FF800214BF2AC725B4802F0FFFE5B480DF036F8AE
:2012E00008F008FC594D5A4C10F0040F0CBFA846A04608F007FC012814BF2F46274608F023
:20130000F9FB10F0020F0CBF2E46264608F0F2FB10F0080F08BF2C463A46334600944146D4
:201320004C4802F0D9FE00214B4803F0F7FC03F0A3FA0DF019F902200CF092FF474802F0E7
:20134000CBFE474B474C18680DF000F8464802F0C3FE464B18680CF0F9FF454802F0BCFEAB
:201360002168444802F0B8FEE469A04720B1A0470146414802F0B0FE0A200CF0E0FF002629
:2013800008F05EFF04A80821039601F029FB9DF817309DF81670394CDFF8008143EA072746
:2013A00004AB03CBD8F82C502060616002204AF6CD31A84739460320A84719210120A847F9
:2013C0000822D8F8343004A90B209847D8F8283003A9012098470399294802F07DFE294B36
:2013E000394629481F8002F077FE284A236813606368536008F00EFC3146254803F08EFCA6
:2014000002200CF02DFF3146224803F087FC22480DF0A0F801F0D4FA01200CF021FF03F03D
:201420000BFC044601F0C2FA14F0FF0FF7D101F0A3FEF4E7D8010010004003400C40094066
:20144000A5FD0000C8FD0000DFFD0000A2FD00009EFD0000F3FD00002405002026FE0000B2
:2014600060FC000094FC00002DFE000078FC000034FE00003BFE00003EFE000008450020CD
:2014800061FE0000C41D002072FE0000583F00209C0500203804002028FB000028FC000061
:2014A00070B505880446772D30D07E2D40D0002D4ED103F0A1FB294B1870294B1D601E46A5
:2014C0003368284A264D52F823204AB126480021C1549368802098472A6801322A60EFE7C1
:2014E000224A1370772321E01F4AD256002A13DB1B4B1A6801321A60194B1C4A1B6812784D
:201500009342F1DB1A4B1B68002BEBD0184A00231360134A1360EFE7104A00201178114A60
:2015200052F8232003F0D2FB30B97E23238013E00A4B1B788B420FD1094B0B4A1B68D15C50
:2015400001F07F01D1540A4B1A6801321A60CFE700230380032070BD012070BDFA44002019
:20156000F806002048040020FB44002075350020FC060020094B1A780023934204DA084989
:2015800051F82310814207D1064A0748D15C61F07F01D15403F0DABB0133EEE77535002017
:2015A00048040020FB4400203804002008B500F019F8024B00221A7008BD00BF76350020FE
:2015C000024B1A781043187000F026B876350020034B1A7822EA0000187000F01DB800BFC0
:2015E0007635002010B5094B1A6872B90122084C1A6023680A20DB6B984723680F20DB6B8F
:201600009847044B4FF404421A6010BD00070020B4010010A0200240094B4FF40442187079
:20162000084B1A60C20744BF4FF4806243F8102C830703D5044B4FF400421A60704700BF4F
:2016400077350020A020024090200240813801289ABF024B18680020704700BF24070020E1
:20166000024B032202481A60FFF784BF2407002038FB0000802837B50D461A4C02D08128B5
:2016800017D02CE0012500207721256000F0B6FF1549182288200EF07CF902A9B62301F81F
:2016A000013D2A46E02009F0B7FC00200CF002FE15E02068A0B151B101200CF0FBFD0023AC
:2016C0000A4803210A4A03F00DF9022306E0074803F04AF928460CF0EDFD01232360206834
:2016E00003B030BD240700207E35002004070020611600002DE9F84F504B06461B68032B95
:2017000003D04FF00040BDE8F88F431E012BF8D84B4C0622002120460CF028FD00207721CF
:2017200000F06CFFF720214606220EF032F920B9204606210EF03AF9E3E7E0782379000327
:20174000617940EA03103F4B40EA1110198894F800B0C1EB101252434900C1EBD000B3F9EC
:20176000021012134143B3F9040094F801A04243921302EBE1214D10A5F57A45AF107F4381
:20178000B3F90A2094F802907C135443B3F9082099616A43521002EBE404A414DA8804F56A
:2017A00000445443E413B3F91000B3F90E80B3F90CC037D00FFA88F808FB05F5FF126D00DE
:2017C00000B200FB07504FEA0B3242EA0A1242EA19124FEA0C4C0CEBA00C524240F635407D
:2017E000A2EB2C32424302F1434202F5A002002AABBF5200B2FBF4F2B2FBF4F25200D4082E
:201800006443B3F91650600B6843B3F9145094086543B3F912306D1305EB2030184402EBAE
:20182000201000E02046012E06D101EB810101F180000012BDE8F88FBDE8F88F2407002097
:20184000783500207E350020813801289ABF024B18680020704700BF4C070020024B032265
:2018600002481A60FFF786BE4C07002048FB000010B544210446002000F0C0FE084B1CB152
:201880004FF480521A8000E01C801A88022052BA1A8003490246BDE8104009F0BDBB00BFFA
:2018A000C61D0020802838B50D46184C02D0812813D028E0164D01202B689B6B98472B68E4
:2018C00001209B694FF4804198472B680120DB694FF080419847002011E02068A0B151B13D
:2018E0000120FFF7C5FF00230A4824210A4A02F0F9FF022306E0074803F036F82846FFF736
:20190000B7FF01232360206838BD00BF4C070020B40100102C0700205D18000070B52F4B8F
:2019200005461B68032B02D04FF0004070BD8207FAD0032849D12A4E0020442100F05EFE4C
:201940000420314602220EF024F8264C80B133885BBA33805B040BD50120214602220EF09F
:2019600018F828B12846A11C02220EF012F820B91C4804210EF01AF8002063782578A27803
:2019800043EA0525E37843EA02230028CCD098080BF02CFE4FF074510BF07CFE12490BF0EB
:2019A00079FE0BF0C7FF114B1860A8080BF01EFE4FF074510BF06EFE0B490BF06BFE0BF036
:2019C000B9FF0B4B1860012070BD012801D1074B02E00228A8D1064B186870BD4C070020F0
:2019E000C61D00209635002000007A442807002050070020014B1868704700BF7407002098
:201A000073B50F4C064645210020256800F0F6FD36B141F2C203ADF806300123236006E0BA
:201A20004FF4865305F00205ADF8063025600DF106010222012009F0EFFA02B070BD00BF64
:201A400074070020802810B50C4602D0812802D013E000200FE051B10120FFF7D1FF0848A4
:201A60001021084A002302F03DFF012010BD044802F07AFF2046FFF7C3FF002010BD00BF23
:201A800054070020891A000007B50020452100F0B5FD01200DF1060102220DF07AFFBDF9CE
:201AA0000630002B06DA0848FFF764FD074B02221A6005E006481021064A002302F012FF74
:201AC00003B05DF804FB00BF58FB00007407002054070020891A0000813801289ABF024BAC
:201AE00018680020704700BF9807002038B5114B114D03221A602B78ABB1104C00204321EC
:201B000000F07CFD0421204600F0B8FC28700020014600F073FD2288094B52BA1A80628840
:201B2000084B52BA1A8001232B700748BDE83840FFF720BD980700209A350020CC1D0020F7
:201B4000C81D0020CA1D002068FB0000802837B5204D02D081281BD039E01F4B00241C806C
:201B60001E4B20461C801E4B43211C805C8000F045FD02A91023022021F8023D024609F0EA
:201B80004BFA184B21461870204600F037FD1CE02868E8B1B1B1134C23785BB14321002013
:201BA00000F02CFD002000F04FFC20700020014600F024FD00230C4803210C4A02F092FE36
:201BC000022303E0084802F0CFFE01232B60286803B030BD98070020C81D0020CA1D002044
:201BE000CC1D00209A35002078070020ED1A000008B5114B1B78032B1CD8DFE803F00207B6
:201C00000C110BF0E9F800220C4B0EE00BF0E4F800220B4B09E00BF0DFF80022094B04E000
:201C20000BF0DAF800224FF07D530BF03BF90BF0D3FB08BD002008BD9E3500200000103FC2
:201C40000000203F0000303F813801289ABF024B18680020704700BFBC070020024B0222C4
:201C600002481A60FFF786BCBC07002078FB000010B50C4C0120682100F0C0FC3F232146D6
:201C800001226C20237009F0C7F921464F236B200122237009F0C0F9BDE810400020014621
:201CA00000F0ACBC9F35002010B5084C0120682100F0A4FC214601223A200DF06AFE00201C
:201CC000014600F09BFC207810BD00BF9B350020802838B502D0812824D04DE0284C072056
:201CE00023689B6B9847236807209B694FF40051984723684FF08041DB69072098472368EB
:201D00000C20DB6B984723684FF440729B6A0C204FF4806198471B4B4FF480521A600022A7
:201D2000194B28E011F03F0110D0174B4FF480521960164B164C1A60012516480821164ADC
:201D40000023256002F0CEFD256015E0134B1B68DB0411D50C4B0F48196002F005FEFFF7EC
:201D600087FF0F4B1B6813F00103FAD1084A1360044B4FF480521A60054B186838BD00BF07
:201D8000B4010010A0200240C007002090200240BC0700209C070020A51D00008020024059
:201DA000042800402DE9F041324B1A681F4612F0380F15D0304D2B7893B1304E00240120B7
:201DC0006821347000F01AFC31461C20012209F023F921460646204600F010FC06B12C707D
:201DE000274E3F68357807F03F0715BB0FB3254C0120682100F002FC0923214601226B2001
:201E0000237009F009F93F23214601226C20237009F002F9194901221C20357009F0FCF8E2
:201E200021463A2001220DF0B4FD2846294600F0E5FBFBB233709BB1124CDB4301206821A1
:201E4000237000F0DBFB214601226C2009F0E4F80020014600F0D2FB0B480DF0F4FA01E0FB
:201E6000FFF706FFBDE8F04108480521084A002302F038BDC00700209E3500209C350020F4
:201E80009D3500209F350020803801009C0700205D1C0000064B1A7859785A7019709A784E
:201EA000D978DA7099701A7959795A7119717047D01D002008B5034B1B685B689847C0F31D
:201EC000804008BDB401001030B9064B186800F0010080F001007047012806BF024BD8686A
:201EE00000207047C0200240C407002030B9044B1868C0F3001080F0010070470020704784
:201F0000C0200240802838B5144602D0812815D038BD0122A240154B154D1A602B68204621
:201F20009B6B98472B6820461B680021114A9847E0B21149BDE8384001F072BA0C4D81B134
:201F40000122A240094B20461A602B689B6B98472B6820461B680021064A98472B681B6BEB
:201F600001E02B685B6B2046984738BDE0200240B4010010004007207D1F000038B5E0B95D
:201F8000134C20460CF02FFB08B3204604210CF018FB104B1B6813F0010504D100F004FC55
:201FA000E560A06038BD00F0FFFBA368C01AE060BDE838400848FFF7DDBA042807D1BDE835
:201FC00038404FF480414FF0805201F011B838BDC4070020C020024088FB0000024B186868
:201FE000C0F3C000704700BFC02002408138012808B507D8044B03201B685B689847C0F30E
:20200000804008BD002008BDB4010010802810B502D0812819D020E0114C032023685B6BEF
:202020009847104B08221A600F4B4FF4A0601B68DB699847236803201B6800210B4A9847F9
:2020400003200B4901F0ECF907E0054B1B6809B11B6B00E05B6B03209847012010BD00BFE4
:20206000B4010010E0200240B8010010002003207520000008B507480CF0B5FA40B10648C2
:20208000FFF778FABDE80840024840210CF099BA08BD00BFD4070020A8FB000008B5064BC1
:2020A00004201B685B699847034B04201B685B6B98470128F8D108BDB8010010032808B5D4
:2020C0001ED109F07DF8104B00219B68812098470E4B00219B68812098470D4B00219B682B
:2020E000812098470B4B00219B68812098470A4B81209B6800219847084B4FF480521A608B
:20210000BDE8084000F006B938FB000058FB000048FB000068FB000078FB0000A020024082
:2021200070B50DF088F90646FFF7B8FF3C4B4FF4A0601B68DB6998473A4B01221A603A4BEC
:202140001B689B07FBD5394C00F0B6F809F032F80DF033FC364801F031F9236819209B6BB5
:20216000984723684FF400519B6919209847236818209B6B984723684FF400519B69182042
:202180009847236817209B6B984723684FF400519B691720984723681B209B6B984723684A
:2021A0004FF400519B691B20984723681E209B6B984723684FF480419B691E209847236884
:2021C0000D20DB6B98471B4B4FF400551D6023684FF4807200219B6A0D2098472368022093
:2021E0009B6B9847236829469B690220984723680B209B6B9847236829469B690B20984758
:2022000023681D209B6B984723681D209B69294698471EB9BDE870400DF011B970BD00BF18
:20222000B80100102820086028200840B40100106C040020A0200240024B186800F0010080
:20224000704700BF04280040024B1868C0F38010704700BF0428004008B5064B02201B68F7
:202260005B6B9847012803BF034B186800F00100002008BDB801001060200840024B1860D4
:2022800002200DF0E0B800BF0428004010B5084B08481B685B68984710F00C0F044602D098
:2022A0000420FFF7EBFFD4F1010038BF002010BDAC0100100020004038B5104B02201B6866
:2022C0005B6998470D4D02202B685B6B984701280446F7D12B684FF44070DB699847084B70
:2022E0001C60084B1B689B07FBD5074B07481B6807491B680122984738BD00BFB8010010A4
:202300002820086028200840AC01001000200040006CDC02214B10B5FF221A70FFF79CFFA9
:2023200020B11F4A002313601E4A13601E4B4FF440701B681B6A98471C4B01221A601C4B44
:202340001B689B07FBD51B4C082023689B6B984723684FF400519B690820984723680920AB
:202360009B6B984723684FF400519B6909209847236805209B6B984723684FF480419B6925
:2023800005209847236806209B6B9847236806209B694FF48041984710BD00BFAE060020AB
:2023A0000428004010040542B80100102820086028200840B40100102DE9F041204B06468A
:2023C0001A78204B52001A60027808331A600F469846FFF739FF0028FBD10320FFF74EFF4A
:2023E000FFF72AFF0028FBD1FFF750FF01250446BD4212D204B3735DC8F800307B1E9D4243
:2024000009D20120FFF73AFFFFF716FF0028FBD1FFF73CFF04460135EAE76CB10520FFF7D8
:202420002DFFFFF709FF0028FBD1FFF72FFF0446FFF70AFF0028FBD12046BDE8F08100BFE2
:20244000A03500200028004008B50A4B1A780A4B52001A609860FFF7F7FE0028FBD107205C
:20246000FFF70CFFFFF7E8FE0028FBD1BDE80840FFF70CBFA035002000280040F8B5214B67
:2024800007461A78204B520042F001020E461A60FFF7DAFE04460028FAD10B20FFF7EEFE85
:2024A0000125731E9C4214DA8DB1FFF7C5FE0028FBD1FFF7EBFE05460028F2D0134B092013
:2024C0001B683B550134FFF7D9FEE4B2E9E7002416E0002DFBD00520FFF7D0FEFFF7ACFEE6
:2024E0000028FBD1FFF7D2FE04460028EFD0074B3E441B6806F8013CFFF7A6FE0028FBD1D1
:202500002046F8BDA035002000280040082800402DE9F84F1F46364B8B4619789046354AD9
:20252000490011600278344E81463260FFF78CFE0028FBD10320FFF7A1FEFFF77DFE0546A4
:202540000028FAD1FFF7A2FE012482465C4511D2BAF1000F49D019F8043001203360FFF7BF
:202560008DFEFFF769FE0028FBD1FFF78FFE01348246EBE7BAF1000F37D01D4B1D4A19780C
:202580000B20490041F001011160FFF777FE00247A1E944213D2BAF1000F26D0FFF74CFE51
:2025A0000028FBD1FFF772FE82460028F0D03268092008F80420FFF761FE0134E8E7BAF126
:2025C000000F12D00520FFF759FEFFF735FE0028FBD1FFF75BFE40B13368474407F8013CD9
:2025E000FFF732FE0028FBD101252846BDE8F88FA035002000280040082800402A4B10B5FA
:2026000004461970FFF728FE08B9FFF755FE274B1A78A24246D0264900221C700A602549CE
:202620000A601B78D3B9244C052023684FF4C0419B699847236806209B694FF4C0419847F2
:2026400023681E48DB6C052106229847236808209B6B9847236809209B6B1BE0012B1AD1B1
:20266000154C082023684FF4C0419B699847236809209B694FF4C041984723680F48DB6C1B
:20268000082109229847236805209B6B9847236806209B6B98470A4B08481B6809491B68DF
:2026A0000122984710BD00BFA0350020AE0600200428004010040542B401001000200040D7
:2026C000AC010010006CDC0208B5064B04201B685B699847034B04201B685B6B98470128D8
:2026E000F8D108BDB80100100749084A0B68126809688B42F8D1DB01054903EB52620023FE
:20270000C1E90023704700BF082009400C200940B806002010B51A4900220023C1E9002378
:20272000184C042023685B6B9847012801D0FFF7CBFF23680020DB699847134B01221A605E
:20274000124B1B689B07FBD5114A124C1368204623F4807323F0010313600F4B0F491B68C4
:202760001B689847042323600D4B31221A6040F2212243F8342C0B4B01221A6010BD00BF99
:20278000B8060020B801001028200860282008400C00014000000140C801001000210004C6
:2027A0003C0001400400244308B5FFF79DFF024BD3E9000108BD00BFB806002010B50CF0B5
:2027C0003AFE034B1C6808B90CF039FE204610BD082009402DE9F0410CF02DFE1C4F1D4B16
:2027E000012400254FF480723D601B4E1C601A604FF480321A60336880461B682846232159
:202800009847336820461B6824219847336802201B6825219847114B1A6842F4E0221A603C
:202820009D6007F057F90E4B00F5007018600D4B14201C600C4B3C601B681B699847B8F194
:20284000000F03D1BDE8F0410CF0F9BDBDE8F0810000244304200940840100100020094025
:202860001C200940A0022443B0010010431E012B10B501D904281AD110F001021CBF0C4B91
:20288000196010F002031CBF0A4C216010F004001CBF094C216012B1084A0121116013B1E7
:2028A000074B01221A6010B1064B01221A6010BD182009401C200940202009408002244335
:2028C000A0022443C0022443014B1868704700BFDC07002008B50BF030FD154B18600BF0C9
:2028E0001CFD144B1B686BB1134B4FF480721A6007F0F0F800F2052020F4FF700F4B20F0D1
:20290000010018600E4B1B683BB10E4B00221A60094B01221A6002F037FA0B4B1B6833B1B0
:202920000A4B00221A60044B4FF480321A6008BDDC070020A0002443042009401C20094027
:202940008000244380022443C0002443C0022443820702D5034B01221A60C30701D50CF070
:202960006EBD7047000C084008B50CF064FD074B1A68012A09BF064A00231A600223002806
:2029800014BF184643F0010008BD00BF000C084051E5CC1A034A044B1A600122C3F8002CBE
:2029A000704700BFFFFF0F0000000840024A034B1A600122DA607047FFFF0F0000000840CF
:2029C00010B5FFF7D1FF0446FFF7F0FF034B01221A602046BDE81040FFF7BABF0401004340
:2029E00010B50B4B13F8012FFF2A04D1094A9342F8D1094A00E0094A00238B4206DA5418D0
:202A0000E41A14F8014CC4540133F6E710BD00BFC7FF0100CFFF0100F0120050C8FF0100FA
:202A2000014800F081BA00BF3D2C0000F8B50388054633B1B3F5A57F11D00023038003201D
:202A4000F8BD5E4A13805E4A13805E4A13805E4B01221A704FF4A5732B800120F8BD822933
:202A60004FF0010040F0A880584B564E18705348338801888B4200F090804FF000021446A8
:202A800033D28C2C01D9002467E0514F62B1FA5CDD2A01D1DB2702E0DC2A0FD1C0274D4A0A
:202AA00017550134A4B209E0FF5CDB2F08D0DFF824C10CF804700134A4B202E0002200E056
:202AC000012201339BB28B42DBD146E08C2C1FD83F4F6AB9FF5CDB2F18D0DFF8F8C00CF873
:202AE00004700134A4B201339BB29B2BEED910E0FA5CDD2A01D1DB2702E0DC2A04D1C02704
:202B0000344A17550134A4B20022ECE70122EAE7002400239FB28F421FD28C2CB3D82C4F3F
:202B200062B1FA5CDD2A01D1DB2702E0DC2A0FD1C027284A17550134A4B209E0FF5CDB2FEB
:202B400008D0DFF890C00CF804700134A4B202E0002200E001220133DCE7013189B29C2943
:202B600004BF00230380164B18BF0180028819888A421FD013468B421CD0154FFF5CC02F8D
:202B800005D103801448328002F0E0F806E001339BB29C2B08BF0023EDE700240F4B1C80FE
:202BA000002C3FF457AF0E4B1B6803B1984704F02FFF4FE73280F1E7F8BD00BFD81D0020D6
:202BC000D61D0020DA1D0020A135002004450020A2350020603F0020800400204C3F002067
:202BE000E0070020014B1860704700BFE007002010B5C0200BF0D5FB00240E4B1A88A3B2A9
:202C00009A4211D90C4BE05CC02804D1DB200BF0C8FBDC2004E0DB2802D10BF0C2FBDD207A
:202C20000BF0BFFB0134E8E7C0200BF0BAFB002010BD00BF4C3F0020603F002038B5224BDB
:202C400019781A46022906D0032912D1C02804BF01221A7035E000F12401C9B2012906D96C
:202C600003221A70194B1A88194B1A8029E0012302E0DB2801D10223137015490B885C1CAC
:202C8000A4B29C2C08BF00240C80124C098825880F4CA94204D1032313700C4B1B880FE056
:202CA0000D4AC028D0540CD1084A11888B4207D08D420A4808BF138002F048F8012038BD82
:202CC0002380002038BD00BFA1350020D81D0020D61D0020DA1D0020A235002080040020AD
:202CE00038B50C4B02201B685B699847094D02202B685B6B984701280446F7D12B684FF487
:202D00000070DB699847044B1C60044B1B689B07FBD538BDB8010010282008602820084013
:202D200008B5064B02201B685B6B9847012803BF034B186800F00100002008BDB8010010E3
:202D40006C20084008B5084B15201B685B699847064A136823F4FE6323F002031360044B17
:202D600040F2F2721A6008BDB0010010381000404410004037B5264CFFF7B2FF2368254D9F
:202D8000DB6825489847FFF7DDFF2B681D20DB6B9847224B4FF000521A602A684FF0FF3362
:202DA0000093156C1C481C211D22A84723681A485C681B494FF4E1326023A047194B1422C1
:202DC0001A6053F8082C40F2011142F0100243F8082C154B40F201301A68002A14BF024679
:202DE0000A4601F1804101F62F710A600F4A40F2F27111601B684BB10D4B15201A6842F0B0
:202E000050021A600B4B1B681B69984703B030BDD0010010B4010010001000409020024022
:202E2000006CDC0234100040E40700204410004038100040B001001038B50546FFF770FF3F
:202E400018B11F4B1B681A07FBD4032D03D01D4B1B68002B32D1FFF763FF30B11A4B1B48AF
:202E60001B68DB689847FFF76DFF194C4FF4007023681B6A9847032D09D123684FF40070FC
:202E80009B6A984723684FF400701B6B9847114B01221A60104B1B689B07FBD51D2000F035
:202EA000A9FA1C2000F0A6FA4FF0FF3000F0A2FABDE838404FF0FF3000F09CBA38BD00BF24
:202EC00018100040E4070020D001001000100040B8010010282008602820084010B50CF084
:202EE000AAFA0446054800F069FA054B00221A601CB9BDE810400CF0A2BA10BD90040020B5
:202F0000E407002010B50446FFF70AFF08B9FFF731FF034B03481B682146DB69984710BD3E
:202F2000D001001000100040124B10B51860124C124B40B9186123684FF400709B6A984777
:202F400023681B6B08E002221A6123684FF400705B6A98472368DB6A4FF400709847084B42
:202F600001221A60074B1B689B07FBD5BDE81040FFF700BFE4070020B8010010900400203B
:202F8000282008602820084008B5FFF7C9FE18B1024B1868C0F3C00008BD00BF1810004082
:202FA00008B5FFF79DFE0C4B0C4A1B6840F2F27113F0500F11600AD108BD094B09481B6863
:202FC0001B699847084B1B680BB1C0B29847074B1B68DB06F1D508BD401000404410004046
:202FE000D001001000100040E4070020181000402DE9F347402300249046019305460E464D
:2030000000940CF018FA444B01221C60434B1A604FF480721A604FF480321A60404B2046C9
:203020001B683F211B6801349847042CF6D100243B4B20461B683F219B6801349847032CE6
:20304000F6D1384F3B68FFF7B1FC37480BF0DCFA04462CB1A3680BB1032098472468F8E731
:203060006B1C0CD0314BAA0013431C60304B48F000521B6828461B68214632439847DFF8EA
:20308000DCA000242B4ECAF80040336807209B699847684608F0D8F900F042FA0BF083F956
:2030A000254B264D1A68382022F003021A609A68DFF8AC9022F00F029A6033684FF00108AD
:2030C0009B6998472C60012008F0E0F91C4B2C60C9F80040C3F800801A4B1B481C605C6060
:2030E0001A4BCAF800401C603B68194B03211A6822F003021A60174B1B685B689847164BC7
:203100002C60C9F80040C3F800803B6833689B6B984702B0BDE8F087000024430420094022
:20312000840100102C200940E8070020001A4442B4010010B8010010001009404010094036
:203140008801044340012243004003400800094024220840D8010010181009400C400940A8
:2031600020042243034B1A6822F004021A6030BF704700BF10ED00E02DE9F8430CF05BF981
:2031800001F09AFD002840F0F9807E480BF03CFA0225044644B1636823B19847A84228BF2A
:2031A0002846C5B22468F5E70BF0C7F8764B06461B686BB1754BD3F80080C0EB0803022B6E
:2031C0000AD4A3F28F23002B4FF0010702DA05E02746A046022402E0012700E03C46AC42C4
:2031E00028BF2C465FFA84F901F064FC90B101F069FC0446FFF7D8FA241A002C0EDDFFF75B
:2032000063FB634A00EB4424921BE2424FF0010502D505E005460446022302E000252C464B
:203220002B46994538BF4B46012B1AD18DB16FF007039B1BE34202D506F1080406E006F563
:203240008036331B34EA230428BF34460220214602E0022006F58031FFF708FBFFF782FF1B
:203260008CE0022B40F08A805FB1A8F141012DB10B1B002B02DB0220214606E00420FFF7FB
:20328000F5FA002DF7D10220711EFFF7EFFA3D480BF0BAF90625044644B1A3680BB1022034
:2032A00098472369246825EA0305F5E7394FFFF77DFB05F0060615F0040F18BF3C6026B1CB
:2032C000354B30461B689B69984700F029F9002008F0DCF8314B39201A6822F003021A60AC
:2032E0009A6842F00F029A602B4B1B689B6998472B4B0020186018602A4B186006F07AFAD6
:20330000062E02D1022006F00DFA274C274D284E2B682368274823F0030323603368032142
:203320005B6898471C4B1B689B6B98472B6806F063FB214B00221A6033681E4801215B6847
:203340009847236843F00303236001233B602B6806F084FB08F064F80AF0DFFFFFF726FB3D
:2033600008480BF051F9044624B1E36803B198472468F9E70BF034F80CF061F8BDE8F843F3
:203380000CF05DB8E8070020800224431820094071FDFFFF0C400940B80100100010094080
:2033A0004010094020042243242208402C200940D801001000400340800104430146014804
:2033C0000BF03FB9E8070020014601480BF025B9E807002008B505480BF013F9044B0320F0
:2033E0001B6820211B68984708BD00BFE807002084010010431C10B504460BD0064B4FF4A2
:20340000C0421B6800211B689847044BA400234300221A6010BD00BFB4010010001A4442BE
:2034200038B504460D460CF006F80122A240054B1A60054B43F8245018B9BDE838400BF051
:20344000FEBF38BDE0200240EC07002008B50023054A002199500433802BF9D1034B102002
:203460001B681B69984708BDEC070020B001001038B5094B00241D681D600123A3402B42F2
:20348000E0B204D0054B53F8243003B198470134202CF2D138BD00BFE0200240EC070020F7
:2034A0001FB50023029302A84123039307F0CCFF042006F073F9032810D00420032106F04B
:2034C00047F9042006F06AF90328FAD10090002105484FF040521C230BF097FF02A808F0F8
:2034E00009F805B05DF804FB00A00C4007B54123002268468DE80C0007F0A6FF012006F0B2
:203500004DF9012803D0054B986B06F0C3F8684607F0F0FF03B05DF804FB00BF48000010B3
:2035200013B54123002468460193009407F08CFF0320214606F00CF9012006F02FF918B156
:20354000044B986B06F0A6F8684607F0D3FF02B010BD00BF48000010034A00211368197204
:2035600019711B6813607047E80A002008B508F001F820B1024B5888831E5842584108BDBD
:20358000F00A002037B5FFF7F1FF0446E0B9104801A907F0F7FF012814D10AF0CEFE05464E
:2035A0000B4B5A881C46022A04D16488A31E5C425C4107E00AF0C1FE6FF03F035B1BC342CC
:2035C000EED4F2E7204600E0012003B030BD00BFF00A002008B50346B32994BF0A46B42215
:2035E000024819460AF0E6FC002008BD720B00202DE9F04104460BF01EFF124E8046124B98
:2036000014B11B68336014E01F68002517F18044326845F1000500239D4208BF944207D216
:203620000AF08BFE094B1860094B1A6801321A603760B8F1000F03D1BDE8F0410BF0FFBE07
:20364000BDE8F081E40A002004300440EC0A00206C08002000B589B002A8182140F6020219
:203660000CF0B9F9154B9DF81A201B6802A8197961F305028DF81A20597961F387128DF850
:203680001A209B799DF81B2001A963F347020C4B8DF81B20079301238DF8163007F072FFBB
:2036A000012806D102A807F0ADFF431E5842584100E0002009B05DF804FB00BFE404002055
:2036C000B804002038B50B4B00201C681D462379032B02D02379022B06D1074B1B7813B9D7
:2036E000064801F033FB012024682A689442EED138BD00BFB40A00203E36002080060020BD
:2037000013B508F057F8044607F034FF50B1064801A907F037FF012804D1638803F440637D
:20372000002BFAD002B010BD010001040B280BD1082A15D1A1B10B4A002312F8010DC854EA
:203740000133082BF9D107E00C2807D1042A07D131B1054B1B680B60002070470120704770
:2037600002207047200B0020B00A002007B5FFF7FDFEB8B10AF05EFE0028FBD10B4801A9EE
:2037800007F000FFFFF7F2FE0028FBD1084B42F202425B88934205D042F207401B1A5842B7
:2037A000584100E0012003B05DF804FB01000104F00A002010B508F0E3F8012821D00AF09C
:2037C00039FE04460028FAD1FFF7D0FF08F038F80D4B5C800D4B1A79022A08BF1C710C4B92
:2037E0001A79022A04BF00221A710A4B1A79022A04BF00221A71084B1A79022A04BF00221F
:203800001A71012010BD00BFF00A0020700800200009002090090020200A00200B2808B5A2
:2038200014D1082A14D199B107230A4AC85CD21A13F1FF3382F82F00F7D2FFF797FE40B190
:20384000FFF794FFFFF79EFE032008BD012008BD022008BDF00A002070B508F091F80128AF
:2038600001D1012070BD0AF0BBFDFFF77FFE06460028F6D11A4A1B4B51790125587965F3E5
:20388000830151711849882465F38300587119601360DC80154B48791A60D4805A7965F3CF
:2038A000830065F383020B604871CC805A71DC80FFF71CFE0CF09EF8A8420ED10C4B1878BF
:2038C000003018BF012007F025FFFFF7C3FEA84203D1BDE87040FFF755BE304670BD00BF70
:2038E000700800200009002090090020200A00203E36002073B50C46072800F29D80DFE8F1
:2039000000F004131F22254E5383012906D1FFF7A3FF01280CBF0020032090E0002940F07D
:203920008D80FFF747FF6DE0A1F10B030F2B00F28580444BCCB29A7BA24263D09C7365E093
:20394000404B598662E03F4B19865FE031F0070274D13C4BC4F34000197E64F30001C9B2FC
:2039600041F0020160F3820101F0870162F3C7111976597EC4F3800462F3C711324A59767E
:20398000117814708C4241D130481B8B01A9438007F0F8FD002814BF002003204FE031F035
:2039A00001034BD1C8B24AE001F115031A2B45D80C25274EEA0056F835309C4203DC254B67
:2039C00032441A6002E015F1FF35F2D207F0D2FD002834D006EBC5051023ADF804302B79BA
:2039E0006A7903F03F0362F38713AA798DF806304FF0000362F3470301A869468DF80730ED
:203A000007F0C0FD00201AE00E4B1977FFF7AEFD0028F7D0FFF7AAFE012814BF032400247A
:203A20000BF0F6FF0020FFF7E3FDFFF7ABFD01280CBF2046032002E0012000E0022002B0CE
:203A400070BD00BFF00A00203E360020DC0A0020B8FB0000E404002073B50C46002974D024
:203A6000102874D8DFE800F0091015181B3033373B6A6E73736163656800FFF777FD0030EC
:203A800018BF0120206002E0324B9B7B236000205EE0304B5B8EF9E72E4B1B8EF6E70023F2
:203AA0002C4A0B60137E03F001030B60127E520744BF43F002030B60274B1878002847D062
:203AC0000B6843F00403E1E70020086040E0234B1B681B68DAE71F4B93F91C30D6E7FFF79F
:203AE00045FD28B9FFF7B8FE012816D1054600E000250023019301A840F203436946ADF86B
:203B0000043007F03FFD01280CBF9DF8026080260DB1FFF74FFE73B201E06FF07F03236042
:203B2000803314BF0020032012E00B23AEE71A23ACE76FF01403A9E70523A7E7084B1B7895
:203B40005BB2A3E7074B1B78A0E7022000E0012002B070BDF00A00203E360020E4040020AA
:203B60003F36002050360020F0B589B00646FFF7FDFC28B9FFF770FE012857D1054600E030
:203B800000250AF0DAFB07460AF054FC012804460AD10AF0D2FB6FF01F03DB1BC342F3D442
:203BA00025B1FFF707FE01E010B1F9E7022040E042F6014202A818210BF00DFF1E4BF6B2FA
:203BC0008DF81760069304949DF81430012064F303031A4C8DF8143021782646003118BF25
:203BE000012107F0C9FD02A801A907F0CBFC90B13278BDF80A3003F4406323B9002AF8D191
:203C0000FFF7B0FAF4E7BDF80A40A4B2B4F5105418BF012400E001243078003018BF0120F6
:203C200007F0BCFD25B1FFF7C5FD01E0012000E0204609B0F0BD00BF720B00203E360020A8
:203C40002DE9F347424D074688462C68FFF78EFC10B10020FFF7CCFC0AF06FFB064623796B
:203C6000022B03D02379032B6DD106E00AF065FB384B9B1BC342F2D4F4E72C68237A032BBE
:203C800002D8FFF769FC5EE0257AEDB2A5F108064645F6DC3846324604F109010AF08AF900
:203CA000EB1CE25C2C4B2D4F1A702A1D05356059A25C019002F03F02DDF804A03A70284AB1
:203CC000BAF1404FD2F8009098460BD90AF035FB244B1B68C3F17E4303F57203C34248BF84
:203CE00009F1FF39204B6FF4BF741B6814EB0A044FF0FF3545F10005E41A65EBE37500228B
:203D0000A41845EB0905194B2902C3E9004541EA14610023200243F6095209F031FE144B29
:203D20001860144B1B7853B998F80010042049B289B206F05BFA3978032006F057FAFFF7B7
:203D40000BFC304600E0002002B0BDE8F08700BFE80A0020FAFEFFFF3F3600205036002016
:203D60006C080020EC0A0020641C0020C0060020B00A00203E36002010B5FFF7F7FB60B9DF
:203D8000FFF76AFD01280AD0BDE8104008484FF48731084A002300F0A5BD002400E004466E
:203DA0000020FFF725FC002CEED0FFF703FDEBE7BC0A0020793D000070B52F4C2F48FFF771
:203DC000FDFA07F08BFC2046002190220AF0CEF9002190222A480AF0C9F90021902229482F
:203DE0000AF0C4F90021902227480AF0BFF9274E274B34601C60274C002520462946802212
:203E000075600AF0B3F91922A273B922E273224A42F6010323806261012307226F21227624
:203E20006373E17684F8373002221C4BA6216276217742F202011980218BFF222661A27674
:203E400059801A71FFF708FD0128044611D1144807F054FD2046FFF7CBFB12484FF4873193
:203E6000114A2B4600F03EFD1048294600F056FF00E02C46204670BD70080020A4040020FA
:203E80000009002090090020200A0020B40A0020E80A0020F00A002040360020DC0A002050
:203EA00020FC0000BC0A0020793D000080060020034B1B68002B0CBF02200120704700BF24
:203EC000280C002038B5074B02201B6800241D46054B1B685B689847221845F100031046E5
:203EE000194638BD04800240CC01001008B5064B04201B685B6B9847012803BF034B1868B8
:203F0000C0F34000002008BDB80100103C20084038B5038804461BB3B3F5847F03D000232B
:203F20000380032038BD114B1B788B421BD1104D2B682BB1FFF7C6FF2B68984700232B6097
:203F40000C4B40F201401B689B6A98470A4B01221A600A4B1B689B07FBD50948FFF734FA7F
:203F60004FF484732380012038BD00BFAF060020280C0020B801001028200860282008405D
:203F8000E804002038B50C4B04201B685B699847094D04202B685B6B984701280446F7D19A
:203FA0002B6840F20140DB699847044B1C60044B1B689B07FBD538BDB8010010282008605B
:203FC0002820084070B51F4B1B688BB100231E4A995C39B10021D1541C4A02EBC303D3E97E
:203FE000000170BD0133042BF1D10020002170BDFFF77CFF08B9FFF7C5FF154A154B1168DC
:2040000014460B406BB9144B01221A6018680028FCD102464FF4807105F0D2FB0F4B0122AB
:204020001A600BF008FA06462368DB07FCD5FFF749FF04460D460EB90BF001FA2046294612
:2040400070BD00BF280C002051360020C80600200880024001000080F09F0240A802504233
:2040600038B50E4D00240E4B2C601A68312022F001021A600B4B1B685B6998472046224643
:204080004FF4807105F09CFB01232B60064B224619780648BDE8384000F018BEA8025042FA
:2040A0000C800240B0010010AF060020FC04002010B5074C2378802B08D100F09DFD20702B
:2040C00000210448BDE8104000F028BE10BD00BFAF060020FC0400200FB407B504AA52F8B0
:2040E000041B0448019200F01FF803B05DF804EB04B070470C05002038B505460C46102C62
:2041000007D92B68686807491022984748B9103CF5E72CB12B68686802492246984738BD0B
:20412000204638BDE1FE00002DE9F04F95B0074605910D924FF00008059C2378002B00F08B
:20414000538323461C4613F8012B1AB90598844203D10CE0252AF5D1F8E705993B68651ADD
:2041600078682A469847002840F02183A8442378002B00F039836378002B00F035830134D3
:204180000026224614F8013B2B2B11D006D8202B11D0232B12D146F00806F2E72D2B04D08E
:2041A000302B0BD146F01006EBE746F00106E8E746F00606E5E746F00206E2E7A3F13101C3
:2041C000082910D813464FF0000C1A4613F8011BA1F13000092815D84FF00A0A0AFB0C1C3B
:2041E000ACF1300CF1E72A2B0AD10D9B0132191D1B680D91002BB8BF46F001069C4601E00A
:204200004FF0000C13782E2B1FD15178531CA1F13000092810D819464FF000090A780B46F2
:20422000A2F13000092801F1010111D80A2303FB0929A9F13009F1E72A2907D1931C0D9A24
:20424000111D0D91D2F8009002E013464FF0FF391A786C2A09D15A786C2A02D146F080068D
:204260000AE0013346F060060BE0682A09D15A78682A03D146F02006023302E0013346F018
:2042800040061A78642A3CD01FD8462A48D00DD8252A5AD003D8002A00F0A68257E0412A10
:2042A0004AD0452A08BF46F4424650E0582A31D004D8472A08BF46F4A13648E0612A38D059
:2042C000632A08BF46F4A06641E06E2A3AD007D8662A22D027D3672A28D0692A11D036E019
:2042E000732A2CD006D86F2A11D0702A08BF46F440762CE0752A07D0782A08BF46F4C85639
:2043000025E046F4245622E046F410661FE046F488561CE046F4B24619E046F4007616E04E
:2043200046F4844613E046F4024610E046F481360DE046F4C1360AE046F4E13607E046F4A9
:20434000806604E046F4E06601E046F4C0660133059306F4E063B3F5806F00F0A58114D830
:20436000B3F5807F28D0B3F5407F7FF4E5AE0D9BA649A7481A1D16F4804F0D9218BF0846D7
:204380001A680DF14B010023B6E1B3F5C06F08D0B3F5E06F00F02182B3F5A06F7FF4CCAEBA
:2043A000EFE13B6878689B4901229847002840F0FE8108F10108BFE6B9F1000FACBF26F00C
:2043C00010064FF0010916F40054049406F0E00337D0402B17D008D8DBB1202B2AD10D9BFC
:2043E0001A1D0D9293F9002017E0602B11D0802B20D10D9B073323F0070303F108020D92A0
:20440000D3E900230AE00D9B1A1D0D92B3F9002003E00D9B1A1D0D921A68D317002A73F12E
:20442000000009DA504263EB4301CDE902014FF0010A34E000220023CDE902234FF0000AF5
:204440002DE0402B16D007D8D3B1202B21D10D9B1A1D0D92187811E0602B11D0802B18D15F
:204460000D9B073323F0070303F108020D92D3E900010BE00D9B1A1D18880D92002105E0D4
:204480000D9B1A1D0D921B681846F7E7CDE90201D4E700220023CDE902234FF0000A06F408
:2044A000C053B3F5805F0BD0B3F5C05F3CD0B3F5006F5AD10DF14E040C94DDE9024504E091
:2044C0000DF14E01DDE902231CE054EA0501DDF830B045D0204629460A220023CDF804C0ED
:2044E00009F04EFA0C98303200F8012D0C90294620460A22002309F043FADDF804C0044676
:204500000D46E2E752EA03008B4629D002F00700D408303001F8010D44EA4370DC080690DF
:204520000794DDE90623EDE7384B394816F4804F0DF14E0118BF1846DDE9022352EA030490
:204540008B460DD002F00F04045D01F8014D140944EA037408941C090994DDE90823EDE71B
:204560000DF14E05CBEB050502E00DF14E0B002541F60803A94506EA030341F208028CBF1E
:20458000C5EB09094FF00009934204D1B9F1000F08BF4FF0010941F60802934209EB05018E
:2045A0000CD1DDE90223134308D01B4B1B4A16F4804F4FF0020418BF1A4601E00024224678
:2045C000049890B1BAF1000F0DD106F00603022B06D0062B124B08BF012408BF1A4604E0DF
:2045E0000124104A01E0104A012401EB040AD4458CBFCAEB0C0A4FF0000A16F001030293CB
:204600001DD1F10612D5D1449A4618E0F1FE000053FD000013FF000005FF000002FF00008B
:204620000AFF000032FE000008FF0000384651460192FFF761FD019A002840F0B8803CB126
:2046400011463B68786822469847002840F0AF804E46102E3B6808D97868654910229847BD
:20466000002840F0A480103EF3E736B17868604932469847002840F09A803B68786859463B
:204680002A469847002840F09280A8444444A144029C34B138465146FFF72EFD002840F0F7
:2046A000868009EB0A0847E50D9B1D681A1D0D923DB12B461C4622780133002AFAD1641BBC
:2046C00001E04C4D0624B9F1000F02DB4C4528BF4C46A4458CBFC4EB0C0A4FF0000A16F04E
:2046E000010605D138465146FFF706FD00285ED13B687868294638E052EA03040D460DD0FB
:2047000002F00F04045D01F8014D140944EA03740A941C090B94DDE90A23EDE70DF14B04B4
:20472000641A04D130234D1E01F8013C012478230334A44505F8013C4FF0300305F8023C6B
:2047400088BFC4EB0C0A4FF0230398BF4FF0000A16F0010605F8033C04D138465146FFF71F
:20476000CBFC20BB3B687868E91E22469847F0B9A044002E2FD038465146FFF7BDFC50B345
:2047800015E00D9BBCF1010F03F104021B688CBF0CF1FF3A4FF0000A16F001060D928DF847
:2047A000383008D138465146FFF7A6FC10B14FF0FF301AE0D0443B6878680EA90122984792
:2047C0000028F4D12EB138465146FFF795FC0028EDD10AF1010AD044AEE40D9B1A1D1B687D
:2047E0000D92C3F80080A7E4404615B0BDE8F08F15FF00000CFF0000F8B5038805461646E7
:204800002BB14A2B15D0002303800320F8BD174809F0FAFE04462CB1201DA16809F0A5FE8B
:204820002468F8E7124B01221A704A232B800120F8BD8829FBD10D4809F0E6FE0446002CF0
:20484000F3D0231D9E420ED10848214609F0E5FE084B62691F681A60A2691E460AB1E06971
:2048600090473760E1E72468E9E700BF2C0C002055360020380C002010B5064B00240648F8
:204880001C7009F0BEFE21460448BDE8104000F045BA00BF553600202C0C00201405002045
:2048A00070B50446E3610B4B04981B786061A26143B1094D094B2E68201D2B6009F055FEB4
:2048C0002E6000E0A16021460548BDE8704009F0B8BE00BF55360020380C002014050020EA
:2048E0002C0C002013B5034C24680094FFF7D8FF02B010BD380C002070B5094B05461B7822
:204900003BB1084C084B26680430236009F036FE266029460548BDE8704009F092BE00BFF3
:2049200055360020380C0020140500202C0C002070B5094B05461B783BB1084C084B26685F
:204940000430236009F023FE266029460548BDE8704009F076BE00BF55360020380C0020F4
:20496000140500202C0C002010B5084B04461B781BB1043000F0B0F801E0C360036121464A
:204980000348BDE8104009F048BE00BF553600202C0C002010B50D4C236813B90C4A1360D8
:2049A00010BDFDF701FF236893E806000A44121A9B683BB193E812002144091A8A4228BFF9
:2049C0000A46F5E7024B1044186010BD300C0020340C0020014800F0B9B900BF2405002056
:2049E000F8B5038805462BB1592B09D0002303800320F8BD1E4A136059232B800120F8BDA5
:204A0000872920D08229F7D1194F00263C68002CF2D0204609F0E7FD90B1E0688821224686
:204A200000F054F950B9E060A3680EB1B36000E03B600023A360FFF7ADFFE5E7FFF7CAFF45
:204A40002646A468E3E70A490B680BB90B60D3E7D868904201D19B68F7E70B60996800290B
:204A6000CAD0C86890420ABF89680B469960F5E7300C002010B50446FFF7ACFFE3680B4A0E
:204A80004BB113683BB1A34203D1094A1268DA6007E09B68F6E7064B1B68E3601368146026
:204AA000A360BDE81040FFF775BF00BF300C0020380C0020024B1868003018BF01207047A9
:204AC000300C0020024B186808B1024B18687047300C0020340C002010B50B4A04461368D5
:204AE000984206D18368136008E09A68A24203D01346002BF9D103E0A2689A60FFF74AFF92
:204B00000023A360E36010BD300C002038B5836804460D469BB10A4804600220A07304F162
:204B20000C0098470238012801D9832D05D120462146BDE8384000F005B80123A37338BD01
:204B4000380C00202DE9F8431D4A1E4E15683768044689462B469046A34204D00BB11B6859
:204B6000FAE7BDE8F88344B3A37BABB10023A37345B1AC4204D028468721224609F019FD45
:204B80002D68F5E7A3683BB14C4505D0346004F10C0083212A469847D8F800309C4209D107
:204BA0002268074B00E022681A6005E01A68A242F9D01346002BF9D13760BDE8F88300BF5D
:204BC0003C0C0020380C002010B5094B00221A70084B1C685CB1E37B3BB101230022A373BA
:204BE000E27320468221FFF791FF2468F2E710BD583600203C0C0020024B1878421C1A70C4
:204C0000704700BF59360020064B8A221A70064A00231370054A1370054A1360054A13609C
:204C2000704700BF5936002056360020573600203C0C0020380C00202DE9F041194F3B78C8
:204C40000BB1FFF7C1FF184E337833B3174A0C241178174D4C432819D0F804800131806837
:204C600001F01F01013B2D5D1170337068B9114B1C6894B13B780BB1FFF7A6FF2046294614
:204C8000424609F096FC2468F3E7812D04BF012383732946424609F08CFC3B7830781844E1
:204CA000BDE8F081583600205736002056360020400C00203C0C0020024A034B10781B784E
:204CC000184470475736002058360020F0B50B4C2378202B0FD00A4D0A4F2E780C251E44BC
:204CE00006F01F066E430133BD19B9552370A8606A600020F0BD0120F0BD00BF5736002064
:204D000056360020400C002038B5034C256809F050FC256038BD00BF380C002030B50A4D94
:204D20000A462C68234683420DD00BB11B68FAE748B1046001212860817383818121BDE81E
:204D40003040FFF7E1BF30BD3C0C002038B1837B013B012B03D8024A0123C37313707047EE
:204D60005836002010B50246064853600468029B11609360026014B9084609F0DAFA0020A0
:204D800010BD00BFC00D002010B5084C206858B100232360816843689847236823B11868F8
:204DA000BDE8104009F0C5BA10BD00BFC00D002038B505880446672D09D0792D2ED0002D0B
:204DC00032D1FFF719FF1B4B18701B4B1D601B4809F060FC431C01D167231DE00A28164BEE
:204DE00007D01A687E2AF2DC511C1960144B9854EDE7196800254A1C1A60114A0D4B5554FD
:204E000028461978FFF762FF0E4B852118682A46FFF75CFF20B97923238009E0852907D175
:204E2000054B00221A60D2E700230380032038BD012038BD05450020CC0D0020C40D0020A5
:204E4000DA360020380C002008B505480549802209F019FCBDE8084003480021FFF75EBF4A
:204E6000C40D00205A360020340500202DE9F341144C064600910D4690461F460194124834
:204E800003212022334609F015FC012816D12368187021683046023106F1100350F8042B53
:204EA000984241F8042BF9D12068089B85744361099B80F813800777836100E0002002B05B
:204EC000BDE8F081D40D0020DC3E002070B50C4B0C4D06462B602C680B4B9C420BD2237895
:204EE00033B1A27CA01C3146D20809F02FF820B120342C60EFE7002070BD012070BD00BFA2
:204F0000DC3E0020D40D00203C3F002013B5084C802203460092019406480321202209F0E0
:204F2000C9FB08B9206800E0002002B010BD00BFD80D0020F83D002010B50C4A0C4B1360E7
:204F400013680C498B420DD2197849B1411C02D0997C814204D15C8848F2FE018C4203D0B0
:204F60002033ECE7002010BD184610BDD80D0020F83D0020583E002037B5104D04468023AD
:204F80000093122201950E480521234609F092FB01282A460ED12B6804F1100118702B681D
:204FA0002046023350F8044B884243F8044BF9D1106800E0002003B030BD00BFD00D0020CD
:204FC0007C3E0020F7B5224D0446802300930E46174601951F4803212022234609F06AFB81
:204FE000012831D12B6804F11002187029682346023153F8040B934241F8040BF9D1286866
:20500000C77416B90123037505E000230375314618300AF00AFD2B680F4A0120987402236C
:205020005370FF210023D072117053809380D380138193721173637B10465373E389D38197
:20504000FFF79AFF286800E0002003B0F0BD00BFD80D0020F83D0020DC1D002013B5084C83
:20506000802203460092019406480521122209F021FB08B9206800E0002002B010BD00BFDA
:20508000D00D00207C3E002038B50546C8B10D48022100244170FF22012144808480C480EC
:2050A00004818472C17202730270EA7B42732A8AC281FFF7D3FF044A106008B109F01FFBF8
:2050C0002C7038BDDC1D0020D00D002010B50E4B0E4C236020680E4B98420ED203784BB11C
:2050E000037D3BB9183006F051FC18B1074B1868FFF7CAFF23682033EBE700F0EFFABDE829
:205100001040044809F03ABAF83D0020D80D0020583E00203C3F00202DE9F8430A8848F23E
:20512000FE039A4205460F4623D00B78FF2B20D01C4B1D4A00241A60A1469846D8F8006001
:205140001A4B9E4219D233787BB1B37C012B0CD1728848F2FE039A4207D03846B11C09F0E4
:20516000DBFA484524BF344681462036C8F80060E4E70120FFF7E0FE04464CB92C806C808C
:20518000AC80EC802C816C81AC81EC81BDE8F883A31C123453F8042BA34245F8042BF9D189
:2051A000BDE8F883D80D0020F83D0020583E002010B509F0C0F9044609F0BDF9054B2202DB
:2051C0009B6892B21044B0FBF3F203FB120000EB530010BDE03D002073B52F4C01F056FA68
:2051E00000F08EF8002160222C4808F0BFFF00212046F82208F0BAFF294B20221A70294B66
:2052000018221A704FF4A0632360274B40262671A360FFF7CDFF002542F21073E06023612D
:205220002575224C48F2FE03238065802B46A580E5802A463146009501952046FFF716FE26
:2052400020461B4909F05FFA294601222046FFF7B9FE40F2FF264FF480732046E381268090
:205260006580A580E58025816581A581FFF784FE4FF40073204626806580A580E5802581BE
:205280006581A581E381FFF777FE0A480C2102B0BDE8704009F069B9E03D0020DC3E00201B
:2052A000D93E0020D83E0020C0270900DC1D0020583F00203C3F00202DE9F04105460D483F
:2052C0000F46904609F0A0F9044688B1012D04D8094809F0CEF9034601E0084B1B68284605
:2052E000666839464246B047204609F0C9F9EBE7BDE8F08188120020200E00201C0E002087
:2053000008B50B480AF098FB0A4809F07AF90A4B0A49186804F06CFD09480AF08DFB094889
:2053200009F06FF9BDE80840074809F06AB900BF64050020C40E00206005002057E70000B7
:2053400044050020200E00208812002008B5034640B1054A596810680AF0F8F8BDE8084086
:2053600009F02ABA08BD00BF60050020014809F04BB900BFC40E002008B509F01FFA01463A
:2053800038B1044B18680AF0C8F8003018BF012008BD08BD600500202DE9F0418046FFF761
:2053A000E5FF0026044637469CB194F82450B5420AD3404604F10801EA0808F0C7FD18B9F8
:2053C000802D08D02E462746204609F0C0F90446EAE73C4667B1084809F016F9844207D0A5
:2053E0000548214609F019F90348214609F038F92046BDE8F08100BFC40E002038B50446AE
:2054000000283ED04368002B3BD01E48214609F004F96368586809F0F7F8054630B1436868
:20542000A34207D0284609F02BF9F6E704F1080002F07EFC63682946586809F0EEF863683B
:20544000586809F0E1F828B963680F4A5968106804F088FD21460D480AF012FB29460C487D
:205460000AF00EFB0B4B20461A68013A1A60FFF76DFF04F108010246BDE838400320FFF758
:205480001BBF38BDC40E00206005002064050020700500201C0E002010B5044680B1406876
:2054A00070B109F0B1F820B14068FFF7A7FF6068F7E7044B21461868BDE8104004F052BD40
:2054C00010BD00BF600500202DE9F84F064610468946904609F072F9044610B90020BDE8DB
:2054E000F88F3046FFF758FF074660B1FFF72EFF014628B14046102208F028FD00285ED096
:205500003846FFF77BFF2F4B1A689B46142AE5D02D4F214638680AF000F8BA46054668B9EC
:205520002B4638682146042204F090FC05460028D4D000236860036009F063F823480AF02F
:205540008BFA04460028C9D02148214609F088F820480AF081FA074620B921461B480AF0AB
:205560008FFA2CE044603946686809F06AF8DBF8003065600133DAF800002946CBF8003018
:2055800006F1100704F004FD334604F1080218685968154603C50833BB422A46F7D184F840
:2055A000249004F1180000210C2208F0DFFD022031464246FFF780FE2046BDE8F88F384662
:2055C000BDE8F88F1C0E00206005002064050020C40E00207005002038B505460D4809F03A
:2055E00013F80446A0B1AC420ED12146094809F014F8214608480AF043FA211D01200A46DE
:20560000BDE83840FFF758BE204609F039F8E8E738BD00BF200E00204405002038B505465F
:20562000084808F0F1FF044648B1201D2946102208F08CFC18B1204609F022F8F3E720460F
:2056400038BD00BF200E0020F8B505460F46FFF7E5FF044640B913480AF0FEF90446F0B1A7
:205660001148214608F0FCFF2B46261D05F1100E18685968324603C2083373451646F7D11A
:2056800037B104F1140039460AF0CFF9002300E001232377002029462A46FFF70DFE2046B1
:2056A000F8BD00BF44050020200E002038B50A4808F0AAFF002504465CB1251D284601F0C2
:2056C00019F808B1437C23B9204608F0D9FF0446F2E7284638BD00BF200E002010B50A4885
:2056E00008F092FF044670B1237F43B904F1140006F04CF918B12046FFF76EFFEFE7204606
:2057000008F0BEFFEEE710BD200E002037B5124B124C1D7823796279C5EB032313449BB2B7
:20572000ADF80630BDF8063004F108011844202280B209F012F8BDF8062005F12801214473
:2057400092B209F00AF810B140BA80B201E04FF6FF7003B030BD00BF84370020603F00208F
:20576000F8B5264F264D3A7826492832531993F801C002234FEACC0C0CF1070C9C4539DB26
:20578000D0182E18285C1E4C01282ED002D3632802D011E001332BE018461A4D0B7002F032
:2057A000FDFFC8B13A782B7828321A4414446278134402332B701EE000F0C000802805D0E3
:2057C000C02805D0402810D10B7005E00B7005E00B70217EFF2901D10120F8BD04200221D2
:2057E0001A4406F0B3F90220F8BD707802300344DBB2C3E70B700020F8BD00BF8437002050
:20580000603F00208A37002070B5C478124B0C44E4B2DC7082780E0A3244D2B29A70457825
:20582000B2425D700078187005D20135EDB25D700DB901301870C9B28C420CDA0132D1B2CA
:205840009970054A39B953780133DBB2537013B913780133137070BD543F002010B5084CA8
:20586000014620681430FFF7CFFF064A236811781975517859759178D2789975DA7510BD4B
:20588000FC3F0020543F002008B5FFF7A5FC06F049FA01F0A7F800230D4900225A52023361
:2058A000282BF9D10B49002311443032B2F5F07F81F82530F6D1084A4FF480611180074A9A
:2058C00000211A442033B3F5A07F1182F7D108BDE841002000400020EC1D002014420020C7
:2058E0002DE9F041114E3478F4B1114F04F12703B7F80080434502DB00233B8013E00D4D73
:20590000A8F1280204F12801121BC4EB0804A4B205F12800294408F0C3FB3C80283C2312D2
:205920002B716C7100233370BDE8F081843700204C3F0020603F00200023064A32F813100D
:20594000814203D1002122F8131070470133142BF3D17047E84100202DE9F74FA2490428F1
:205960000C688A46A14E00F07282A14AA14DA24B032815601D60914615D194F8253003F09C
:205980000F03032B08D1A38B002B40F059869B4B08221A7000F04FBD022B40F05186002399
:2059A00005F8073CD0E302287AD1954A00231370944A33801380944BDA780132D2B2DA70A4
:2059C00062B99A780132D2B29A703AB95A780132D2B25A7012B91A7801321A7094F8253098
:2059E00003F0FD02052A0DD194F826300133DBB2782B84F8263040F02386002384F82530C3
:205A000000F01EBE002B00F01B86A28B7B49002A3DD094F82620501E84F82600002A40F09A
:205A20000F8694F82720082A04D0581E01280AD8052A08D1002384F8253080230B7002F06B
:205A400043F900F006BD042A9CBF0320904003F00F0394BFC0B230200132013B84F82600B0
:205A600084F82720072B00F2EB85DFE813F0690308000A00B004E905B004E905B00400226D
:205A80005FE304230B7002F01FF900F004BD03F00F03032B40F0D48508230B7000F0CBBC8E
:205AA000052811D159480068008A002800F0C8850C3D1D60534B00201880504B1560082289
:205AC000086030801A70C0E115F83C3C3C3D03F0F003602B40F0B4852B796A791B0231884E
:205AE0009818884200F3AC852832134433802B7AFF2B00F0A585464FAB1D3B60454C404BA7
:205B000000221A702270AA799846BAB901232370FFF726FE012800F0938503D3022800F0E1
:205B20008B850BE098F8002002F128032B443B605B78083202EBC30288F800203648FFF7BF
:205B4000E5F9002840F0B1803348FFF787FA002840F0AB802A7E3049FF2AA1F118035FD043
:205B6000198B48F2FE0081425AD01989814257D079B9598969B9998959B9D98949B91B8A5D
:205B80003BB9698A254B21B9998A11B9DB8A002B46D0298B214B79B9598B69B9998B59B9B3
:205BA000D98B49B9198C39B9598C29B9998C19B9DB8CB3F5807F33D03388B3F5A06F04D9CA
:205BC000022000214FF4A06205E0EB79012B06D8002103200A4605F0B9FF00F02DBD0F4A76
:205BE000013BD37100F028BDFC3F00204C3F0020F83F00209C3F0020503F0020EC3F0020FE
:205C0000843700201042002086370020F43F0020F03F002085370020783F0020603F002046
:205C2000298948F2FE03994240F00A85298BA34B81B9598B71B9998B61B9D98B51B9198CA2
:205C400041B9598C31B9998C21B9DB8CB3F5807F00F0F684FF2A00F0F3849948FFF736F96E
:205C60000246002840F0EC8401200221B3E725D9BBF13A0F7CD02CD9BBF13B0F00F0E084A8
:205C8000BBF13C0F70D123788E4998073FD558066AD443F040030B70FFF762FD012800F0AC
:205CA000CF8437D3022800F0C7843A68DFF840C292F800B0BBF12B0FD9D138E0BBF1060F04
:205CC00000F01881BBF1110F73D0BBF1000F4BD104E0BBF12C0F00F0B38445E02378D907C3
:205CE00042D4784A43F001031370CDF800C0FFF737FD0128DDF800C000F0A284D2D298F85B
:205D0000002002F128032B44CCF8003008E043F00203C0E798F8002002F128032B443B6043
:205D20005B78083202EBC30288F80020BDE7237803F0040000F0FF01B0B9624A43F004038F
:205D4000137098F8002002F128032B44D87810B104202A323FE7CCF800305B78083202EBDE
:205D6000C302594B1A70A0E704200121521B32E708F00FFD4FF6FF73984240F0618498F8A3
:205D800000302833E85C01F02FFE98F800302833EA18E85C517805F0B7FE012803D14A4AB1
:205DA0000023338013703388002B00F0498400F043BCFFF795FDEB8D85F806B053B96F8DBD
:205DC000002F00F03D84414B414D2B603B4BB3F828800BE008F0E3FC4FF6FF73984240F0E2
:205DE0002F84ECE7238A33B920342C602C68394B9C42F7D315E09F42F6D1638A0BB19845C1
:205E0000F2D123682BB963681BB9A3680BB9E3685BB131482146102208F098F80028E3D115
:205E200003E0012004210022D5E62C4A33882C4D303BC9F800202B492A602B4A338002201E
:205E40000023CAF800300870138001F03DFF264B1A88002A00F0F48302F13003174C9BB27B
:205E60003380283B19126371194B08321B6852BA2171197DA2850022E2851A8AE17122856B
:205E80005A8A11216285A17104F118050FCB85E80F0004F108002946FFF73EF9134B04F19F
:205EA0003C021A6008F07BFCC04380B208B1E085BCE34FF6FF73E385B8E300BF603F002091
:205EC000783F0020853700208437002014420020F43F002054430020683F0020903F0020FE
:205EE000503F0020EC3F002010420020F83F0020F03F0020FFF7F4FC85F806B008F04CFC37
:205F00004FF6FF739842AC4C40F09A83678D002F00F09683B4F828B0BBF1000F00F090833D
:205F2000A64CA44694F825309BB1228ABA4210D1628A5A450DD1A248214610220193CDF88A
:205F400000C008F003F8019BDDF800C0002800F011819C4B30349C42E4D195F8353003F0F0
:205F60003F03022B07D10023974A9A5ABA4250D00233282BF8D195F835208F4B500700F171
:205F80005F83142283F835203C223280502283F8342093F8332093F82F4083F82F2093F89B
:205FA000322093F82E0083F82E2093F8312093F82D1093F8307083F82D20013493F82C206A
:205FC000E4B283F8320083F8311083F82C7083F8302083F8334064B90130C0B283F8320085
:205FE00038B90131C9B283F8311011B9013283F830202B8D6A8D724C2A856B8504F1100569
:2060000094E80F0085E80F0020462946FFF784F8F7E20024694B224693F8251019B9302433
:2060200004FB02C411E0072907D12CB193F8260094F82610884200D91C4601320A2A03F1F2
:206040003003E9D1002C00F0FB8203235C4A84F8263084F82430042384F823300FCA84E811
:206060000F005A4A012013784FF000082376537884F8250063769378A083A376D378CAF848
:206080000040E37695F82C3084F82280237595F82D3084F82780637595F82E302782A37537
:2060A00095F82F30A4F812B0E375FFF7D7FB95F8343003F0F002502A42DD18090538800029
:2060C000434683423CDAEA1892F83C10002937D0012901D10133F4E702290FD192F83D1067
:2060E00004290BD192F83E1092F83F3043EA0123402B28BF4023E383238421E0EA1892F826
:206100003D20EAB11344DCE72B49308891F8341028380909A0EB810103F00F0389B2022B88
:20612000318036D102F03F00122853D0B9B3A88DA18A884236D0920740F12082012B37D1DD
:2061400010221D4B83F835201B4B93F8352042F0020283F83520022283F83C20042283F8ED
:206160003D20002283F83E20402283F83F20328060220AE295F83520154912F0040FCAF854
:20618000004008700F46BFD0202384F825000B70AEE1012BCAD102F03F000228C5E791070F
:2061A00018D0C4E70449C88DE18A8842C3D111E0022B40F0E381C7E7603F00200040002062
:2061C000683F0020E0410020E841002086370020EC3F0020D3064DD5A18B00294AD004F1E7
:2061E0001800FFF711FBB24B95F8301093F800C0B04A8C453ED192F831105878884239D127
:2062000092F832B09978594534D192F83320DB7893422FD1E37694F8273084F818C06076F3
:20622000A176FBB994F8242094F8263094F82210D21AA2EBD102D2B2D3B2180648BF534214
:20624000114494F8232048BFDBB2A2EB92021344C9B2DBB284F8233003EBD10384F82210C7
:2062600084F8243001233B7094F8243084F826300023A38394F8253003F00F02013A072A33
:2062800000F2DE81DFE812F00800240080003701570170017A012A013A78874BD2070FD550
:2062A000032284F82520308840221A700022A283002800F0BD8042221A70FFF7CFFAB7E074
:2062C00095F8353003F03F03022B40F0B98137E73B78DB074ED595F8353003F03F03122BC6
:2062E00048D1744B93F8343003F0F002502A25DD180905388000002383421FDAEA1892F82B
:206300003C10D9B1012901D10133F5E702290FD192F83D1004290BD192F83E1092F83F30DF
:2063200043EA0123402B28BF4023E383238405E0EA1892F83D200AB11344DDE7032384F804
:20634000253095F82C300120237595F82D30637595F82E30A37595F82F30E375FFF77EFACF
:206360004223564A3B700023A383338088F80030138060E020233B7001F0A6FCDAF800306B
:20638000002283F82520F6E595F83520D00723D5D90621D4A38B002B40F052813088013076
:2063A00080B2FFF75BFA3B7843F010023A7032881AB1414A43F01203137001F085FC01234D
:2063C000A383082384F82530002384F827301122384B83F83520D4E092060DD595F83A101A
:2063E00095F83B2042EA0122D9F800101144C9F8001031888A1A3280308838B1DB0605D4F5
:206400003B7843F002033B70FFF728FA95F8373095F8362003EB0222238C92B29A4202D83C
:20642000002A18BF1346E3833B78990700F00881224B00221A8001F047FC1F4B1A781F4B0D
:2064400002F0200000F0FF0128B100221A8084F825201422BCE702F0100000F0FF0540B124
:2064600019800123A383042384F8253084F82710ADE7198861B1D20748BFA583A28B32B927
:20648000E28B914288BF1A801B88A38300E01A80002384F827300A4A1368C9F80030074B90
:2064A0001B887BB1A38B6BB13C333380182211E0543F0020603F0020EC3F00201042002047
:2064C000503F0020644B1B789F0740F1B9803C2333801022614B83F8352054E03B78DD0730
:2064E00040F1AE80002384F825305B4B10221A7001F0EAFBA4E0308808B1FFF7AFF995F8F1
:20650000353013F001030ED03B78D80707D5072384F82530002384F82630A38319E006238B
:2065200084F8253015E03A78D1071AD5052284F82520A38384E0308808B1FFF78FF995F82E
:206540003530DA070DD5072384F82530002384F826300120FFF782F910233B7001F0B4FB13
:206560000CE0338853B96BE03B78DB0768D5072384F82530002384F8263061E0102385F86A
:2065800035303C233380354B502283F83420237D324D85F83030637D05F1180785F83130F4
:2065A000A37D85F83230E37D85F83330237E85F82C30637E85F82D30A37E85F82E30E37E0A
:2065C00085F82F30238A2B85638A6B8594E80F0087E80F0005F108003946FEF79DFD94F804
:2065E000253003F0100303F0FF022BB1002385F8373085F8363004E03C2385F8362085F8F3
:206600003730164C0623A371154B1B79E3713388283B1A1263710023227184F83B3084F8F5
:206620003A30238708F0B8F8C04320870B4B60221A7000225A705A80074B00221A7007E0E7
:20664000084A00231370084A33801370024A137003B0BDE8F08F00BFEC3F0020603F00204B
:20666000E03D0020843700208537002010B5044640B102F031FA044B21461868BDE81040DE
:2066800003F070BC10BD00BF7C05002008B503F071FE034B03491868BDE8084003F0A8BB32
:2066A0007C0500206D66000070B51D460C4B06469DF810201868059B03F0C8FB044668B13D
:2066C0003046224606F1100350F8041B984242F8041BF9D16574204602F0FEF9204670BDB3
:2066E0007C050020024B0146186808F02FBF00BF7C05002070B50C4E0546306803F08CFBC3
:20670000044665B9002070BD20462946102207F01DFC38B12146306808F0E8FE0446002C71
:20672000F2D1EFE7204670BD7C050020024B0146186808F0F2BE00BF7C05002070B5054600
:2067400010200C4603F06CFD0849064608F009FF58B930462946224603F0AAFD30462946E1
:206760002246BDE8704002F087B970BD480101002DE9FF478F4CDFF86482E379DFF860929A
:20678000FF2B40F00E8198F80030E21892F83020FF2A00F00681234493F82930002B40F036
:2067A0000081854E854D336014232B7098F800002A782C30B9F8003002449A4257DAA118D3
:2067C00048787C4B002800F0EC80A25C012A44D11A8931607AB95A896AB99A895AB9DA896A
:2067E0004AB91A8A3AB95A8A2AB99B8A1BB9E38A002B00F0D6800A4652F8020F02AB516850
:206800006F4F03C36F48FFF775FF0246386040B905230093019002A902236A48FFF744FFF3
:206820001BE0FFF75FFF8246002800F0BA80306851460230082207F089FB48B1504602A9AF
:20684000012203F0B9FB002800F0AB803B6802E03B685A7C0AB902225A7498F800202B7825
:206860002C321A442244527803EBC2039DE720440430FEF74BFB544B4E4D18609A46002868
:2068800000F08F802B8973B96B8963B9AB8953B9EB8943B92B8A33B96B8A23B9AB8A13B9E6
:2068A000EB8A002B7DD0474D2846FEF72FFB2E46002876D1228B40F2FF239A42A5F1080765
:2068C00005F1100E1BD16B8ACBB9AB8ABBB9EB8AABB92B8B9BB96B8BB3F5807F0FD12B7F8C
:2068E000FF2B0CD195E80F008EE80F0098F800301F44303797E80F0085E80F0012E0334D7A
:206900002846FEF703FBDAF80030834249D196E80F0085E80F0098F80030234430330FCBC8
