:020000040000FA
:2000000000500020A10F0000990F0000810F00009D0F00009D0F00009D0F00000000000084
:200020000000000000000000000000009D0F00009D0F0000000000009D0F00009D0F000010
:20004000A13400009D0F00009DF300009D0F0000DD2A0000512F00009D0F00009D0F000004
:200060009D0F0000C5F300009D0F00009D0F00009D0F00009D0F00009D0F00009D0F000014
:200080009D0F00009D0F00009D0F00009D0F00009D0F00009D0F00009D0F00009D0F000000
:2000A0009D0F00009D0F00009D0F00009D0F00009D0F00009D0F00009D0F00009D0F0000E0
:2000C0009D0F0000D9430000F0B5274B83B01B689B0703D44FF0004003B0F0BD00204521AD
:2000E00002F05EFB0DF10601012002220EF012FC20B901A802210EF02FFCEBE70DF10601BA
:20010000002002220EF006FC0028F2D0BDF806305BBA9CB2200BADF8043010F023FC0FF041
:20012000CBFF0646C4F30B000F4610F02BFC0CA3D3E9002304460D463046394610F088FCC7
:2001400002460B462046294610F082FC10F01AFF064911F075F811F0C3F903B0F0BD00BF01
:200160007B14AE47E17A843FAC0700200000C84208B51F4B1B68032B33D1431E012B30D88F
:200180001C4A1D4B012812881B8812D0184610F0E9FB0022194B10F05BFC0022184B10F0A5
:2001A00057FC10F0EFFE174911F04AF811F098F908BD10B210F0E6FB0022104B10F048FCA1
:2001C00009A3D3E9002310F043FC00220E4B10F08BFA10F0D7FE0B4911F032F811F080F987
:2001E00008BD4FF0004008BD0000000000A06440D0070020903E0020923E00200000F03EAF
:20020000000059400000C84200004440AFF300802DE9F041664B06461B6843B1654B002208
:2002200010F038051A609A8006D142073ED14FF000452846BDE8F08102F0C0FB5E4C2060DF
:2002400007E002F0BBFB22686FF009039B1AC34203D501F003FE0028F3D0584B1B78D90795
:20026000E5D5544C0120682102F09AFA21463B2006220EF04FFB05460020014602F090FA94
:20028000002D7ED027786578A078E17822796379202E67702570E070A170627123715AD0D3
:2002A000102E65D0082E66D00025C2E702F086FB414C206007E002F081FB22686FF00903C7
:2002C0009B1AC34203D501F0C9FD0028F3D03B4B1B78DB07ABD5374C0120682102F060FAF6
:2002E0002146432006220EF015FB074600284DD094F8008094F801C094F802E0E7782279AB
:2003000063790020014684F8018084F800C084F803E0A7706271237102F042FA042E06D04E
:20032000022E2BD0012E84D1B4F9040001E0B4F9000010F027FB1CA3D3E9002310F0B2FC61
:2003400010F020FE1E4910F07BFF11F0C9F805462846BDE8F081B4F9000001F0A9FC184969
:2003600010F06EFF11F0BCF805462846BDE8F081B4F90200F1E7B4F90400EEE7B4F90200D0
:20038000D7E7204606210EF0E7FA50E7204606210EF0E2FA3846394602F002FA4FF0004526
:2003A00047E700BFAFF30080000000000060604000080020D8070020DC3E0020A83E0020C7
:2003C0000000C842AFF300802DE9F04F23F0004B91B089460F465BEA0201CDE9022314465C
:2003E0001D46804606462ED0634B29F0004A9A4522DC1FD0604B9B451EDC77D0002F78DB5F
:200400000022049264BB5C4B9B4500F091805B4B9B4565D0B5F1804F00F0F983584B9D425F
:200420001ED1002F1CDB4046494611B0BDE8F04F0FF0C6BF0028DDD00AF1404A0AF5801A76
:200440005AEA060A04D14D49002011B0BDE8F08F4C4811B0BDE8F04F10F0A6B8002104918B
:200460004046494610F06CF8E6B9BAF1000F04D0424B27F040429A4214D1002DC0F2088484
:20048000002FE2DA0AF1404ADDF810B00AF5801A5BEA0A0B5ED0049A012AD6D101F1004391
:2004A0001946D2E7FB0F03F1FF3C049B53EA0C034ED0354B9B456DDD03F104739B4540F3BA
:2004C000EF83324B9A4540F39C83002D40F39C8327A1D1E9000102460B4610F0B9FAB4E713
:2004E000002DC0F24B8440464946AEE7002C85D0A2E7274B9B4536DCA3F154739B4540F3C8
:200500008D834FEA2B5340F21342934240F33E84C3F58663033324FA03F202FA03F3A34202
:200520007FF46EAF02F00102C2F10202049269E70AF1404303F58013334384D0134B9A4589
:2005400040F39E83002DC0F25F83DDE902017CE74046494602460B4610F0C6F802460B4655
:2005600010F0A0FB71E7022304934BE7AFF300809C7500883CE4377E0000F07F0000F03F6C
:200580000000E03FA82201000000E041FFFFEF3FFFFF3F43BAF5801F80F2EE83AA4B00225C
:2005A000CDF804C010F054FADDF804C08A466FF034034FEA2A55A54ACAF3130AA5F2FF3519
:2005C0004AF07F541D4492450F9544F4401440F3D0839F4B9A4540F3EF83DDF83CA00025DC
:2005E0000AF1010ACDF83CA0A4F580142B46994ADB000E931344D3E90067214632463B467D
:20060000CDF804C0CDE90A0110F06EF83246804689463B46DDE90A0110F068F802460B46D2
:2006200000208D4910F03EFBCDE90C01DDE90C234046494610F00CFACDE90601DDE906AB84
:20064000611041F0005101F500214B190021CDE908AB0891DDE908AB0022504659461446DF
:200660001D4610F0F5F902460B464046494610F03BF83246804689463B462046294610F0E5
:2006800033F802460B46DDE90A0110F02DF802460B465046594610F0DBF902460B464046DF
:2006A000494610F021F8DDE90C2310F0D1F906460F46DDE9060102460B4610F0C9F90246C2
:2006C0000B4604460D4610F0C3F94FA3D3E90023804689462046294610F0BAF94CA3D3E9D7
:2006E000002310F003F822462B4610F0B1F94AA3D3E900230FF0FAFF22462B4610F0A8F91B
:2007000047A3D3E900230FF0F1FF22462B4610F09FF945A3D3E900230FF0E8FF22462B462A
:2007200010F096F942A3D3E900230FF0DFFF02460B464046494610F08BF9DDE9062304461E
:200740000D46504659460FF0D1FF32463B4610F07FF922462B460FF0C9FF52468046894604
:200760005B465046594610F073F900223B4BCDE90A010FF0BBFF42464B460FF0B7FF0898A7
:200780000D46044622462B465046594610F060F9224682468B462B463046394610F058F99D
:2007A000002206460F46204629462C4B0FF09CFFDDE90A230FF098FF02460B464046494659
:2007C0000FF092FFDDE9062310F042F902460B46304639460FF08AFF8046894642464B469B
:2007E000504659460FF082FF13A3D3E9002308980D46044610F02CF911A3D3E90023CDE904
:200800000601204629462BE0EF4E454A287ECA3F65DBC9934A86CD3F01411DA96074D13F12
:200820004D268F515555D53FFFAB6FDBB66DDB3F033333333333E33F000000E009C7EE3F75
:20084000F5015B14E02F3EBE000040438E98030079B60B00402101000000F03F0000084069
:2008600010F0F6F8524606460F465B46204629460FF03AFF02460B46404649460FF034FFC3
:200880009FA3D3E9002310F0E3F802460B46304639460FF02BFFDDF838A0AB4B5344D3E9AF
:2008A00000230FF023FF82460F988B4610F06AF80E9AA64B04461344D3E900670D4652460A
:2008C0005B46DDE906010FF011FF32463B460FF00DFF22462B460FF009FF089822462B463E
:2008E000804689460FF000FF32463B460FF0FCFEDDE906230FF0F8FE02460B4650465946C1
:200900000FF0F2FEDDF804C082468B46049900224B1E53EA0C030CBF8D4B8E4BDDE90201FD
:20092000CDE90823DDE90223CDE9042300230493DDE904452B4622460FF0D6FE42464B4680
:2009400010F086F8524606460F465B46DDE9020110F07EF802460B46304639460FF0C6FEAF
:2009600042464B4682468B462046294610F070F806460F463B465046594632460FF0B6FE06
:20098000754B8046994289460D4640F34B8101F13F4303F5E003034340F012825AA3D3E9C3
:2009A0000023504659460FF0A1FE3246CDE902013B46404649460FF097FE02460B46DDE987
:2009C000020110F0D5FA002840F00882CC464FEA2C53A3F2FE334FF4801018412844C0F388
:2009E0000A515E4AA1F2FF3342FA03FEC1F58261C0F3130420EA0E03033144F4801040FA3E
:200A000001F1002D0491BCBF494204910022304639460FF069FE06460F46324650465946BC
:200A20003B460FF063FE049A12050292002438A3D3E9002320460D4610F00AF832468046B5
:200A400089463B46204629460FF04EFE02460B46504659460FF048FE2FA3D3E900230FF063
:200A6000F7FF2FA3D3E9002306460F46204629460FF0EEFF02460B46304639460FF036FEAC
:200A800006460F4632463B46404649460FF02EFE42464B4604460D460FF026FE02460B460A
:200AA000304639460FF020FE224682468B4620462B4629460FF0CCFF1BA3D3E9002306462A
:200AC0000F460FF0C5FF1AA3D3E900230FF00CFE32463B460FF0BCFF17A3D3E900230FF00E
:200AE00005FE32463B460FF0B3FF15A3D3E900230FF0FAFD32463B4632E000BFAFF30080D0
:200B0000FD033ADC09C7EE3FFE822B654715973C00000000432EE63FEF39FAFE422EE63F38
:200B2000396CA80C615C20BED0A4BE726937663EF16BD2C541BDBB3E2CDE25AF6A56113F01
:200B400093BDBE166CC1663F30210100202101000000F0BF0000F03FFFFF8F40FFFF0F0053
:200B60000FF076FFACA3D3E900230FF0BFFD32463B460FF06DFF02460B46204629460FF047
:200B8000B3FD06460F4632463B46204629460FF05FFF002280468946304639464FF080432B
:200BA0000FF0A2FD02460B464046494610F07AF8524606460F4620465B4629460FF048FF82
:200BC00052465B460FF092FD02460B46304639460FF08AFD22462B460FF086FD02460B4646
:200BE00000209B490FF080FD029C02460C44B4F5801FC0F237812346DDE908010FF028FF2F
:200C000023E4002DFFF664AC002000211DE44046494642464B460FF01BFF16E40021049162
:200C2000FFF7F0BB8B4B21F0004C9C4540F3BD8001F17D5303F53C1303F55053034340F075
:200C4000DB8032463B46CDF804C00FF04DFD02460B465046594610F077F9DDF804C000286F
:200C60003FF4B5AEDDE908016DA3D3E900230FF0EFFE6BA3D3E900230FF0EAFEFFF7E5BBCA
:200C8000002DC1DA039B029803F10041FFF7DDBB02460B4600206E4910F004F8FFF7F0BB84
:200CA0006D4B9A45ADDD6A4B9A453FF70EAC0022674BCDF804C00FF017FD5BA3D3E9002342
:200CC00004460D460FF0C4FE59A3D3E9002306460F46204629460FF0BBFE224682468B46AC
:200CE0002B46204629460FF0B3FE00228046894620462946594B0FF0ABFE02460B464EA19E
:200D0000D1E900010FF0F0FC22462B460FF0A0FE02460B46002052490FF0E6FC02460B46E9
:200D2000404649460FF094FE45A3D3E900230FF08FFE02460B46504659460FF0D5FC0446D2
:200D40000D4622462B46304639460FF0CFFC002032463B46804689460FF0C6FC02460B46A0
:200D6000204629460FF0C0FCDDF804C082468B46CCE500252B463AE400231AE442464B4612
:200D8000002033490FF08EFFFFF75FBB002C7FF465ABC3F5826303334BFA03F202FA03F36D
:200DA0005B4565D00494FFF732BB2D4B9C453FF70EAE049B029339E64FF48025012316E43F
:200DC00021A3D3E90023DDE908010FF041FE1EA3D3E900230FF03CFEFFF737BBDDE90801D3
:200DE00019A3D3E900230FF033FE17A3D3E900230FF02EFEFFF729BB09A3D3E90023DDE939
:200E000008010FF025FE06A3D3E900230FF020FEFFF71BBBAFF300803E5555555555C53F29
:200E200059F3F8C21F6EA501000000604715F73F44DF5DF80BAE543E555555555555D53FB2
:200E4000FE822B654715F73F9C7500883CE4377E0000F03FFFCB9040FEFFEF3F0000D03F7F
:200E60000000E03F049A00F00BF802460B46C3E602F00102C2F102020492FFF7C8BA00BF07
:200E8000C1F30A532DE9F041904606460F460A461BBB21F00043034334D0354B00220FF01E
:200EA000D7FD344B064698450F463BDBC1F30A53363B0A46434440F2FE718B4216DD28A1C8
:200EC000D1E9000132463B460FF000FC24A3D3E900230FF0BDFDBDE8F08140F2FF74A34264
:200EE00027D0434440F2FE718B42E8DC002B0BDD22F0FF4222F4E00242EA03573046394669
:200F0000BDE8F081BDE8F08113F1350F17DA4CF250339845D3DC14A1D1E9000132463B46B6
:200F20000FF0D4FB10A3D3E900230FF091FDBDE8F08102460B460FF0D9FBBDE8F08122F01A
:200F4000FF4222F4E002363342EA0357304639460022094B0FF07CFDBDE8F081AFF300804E
:200F60009C7500883CE4377E59F3F8C21F6EA50100005043B03CFFFF0000903CAFF300805F
:200F8000044B1A68B2F5806F03D01B689B0500D4FEE7704728ED00E0FEE700BFFEE700BF47
:200FA00010B50BF033FB0F490F4B99420BD2C843184420F003000D4C04300023E258CA505B
:200FC00004338342FAD10A480A494FF000028842B8BF40F8042BFADB00F028F9FFF7D0FF11
:200FE00010BD00BF00000020C6060020C0290100C80600206D490020F0B5048887B0A92C6E
:2010000005464DD0B02C44D024B100230380032007B0F0BD444803F023FA444808F082F9DB
:201020004AF6AA2302A84249ADF80830ADF80A40ADF80C40ADF80E40ADF81040ADF81240D2
:20104000ADF81440ADF8164004F0B6FD2146012202A804F073FC374803F002FA364C04F179
:20106000600614F8023C227C0BB1012A25D92034B442F6D1002002464BF60B1107F0C6FDAD
:201080004BF60B012D4A034601820120136000F09FFA2B4B1B785BB9A9232B800120B7E750
:2010A000284B1B788B420FD0254C2378002BF3D0B02301202B8007B0F0BD204608F060FEC5
:2010C000214803F0CDF9D2E7204B1B789B0723D51F4B204A1968128800231F4E8B54327895
:2010E0001E490B603AB9154A1D4B146801270FCB84E80F0037700123114C1846237000F062
:2011000071FA01F05BFC002200F21E510092154B154804F0C7F9C8E70F4B1A78002AEAD116
:20112000074B1A70B8E700BF6C210100842101006040002098210100023F00200807002037
:20114000A23E00206A490020B0210100504400205C44002054400020A33E0020F8060020A3
:20116000704000206D110000FC06002010B5114CA0B02268104902A803F090F9236802A84F
:201180000133236010F012FF0C4B024602A9186807F0E2FC022000F02FFA01F00FFC00228F
:2011A00000F21E510092064B064804F07BF920B010BD00BFF8060020B421010008070020B6
:2011C0006D110000FC060020F0B5002783B005463E463C46284600F0FBF90194019B9E42BC
:2011E00006DD00BF019B01330193019B9E42F8DC284600F0F7F90194019BC6F5C876B3422C
:2012000006DA00BF019B01330193019BB342F8DB0137B7F5487F06D0B7F5C87FCCBFC7F5AC
:2012200048763E46D6E703B0F0BD00BF2DE9F041764C86B02368764801215B6898472368B9
:2012400001210A461B68724898470BF019FB02F03FF902F0D5F800F0EFFF02F00DF900F042
:20126000ADF96C496C486D4A012303600B6018461368FFF7A9FF0BF007FB01F0A1FB01F0C4
:2012800007FB04F00DF901F08FFC04F033F841F2342002F0B3FF01F029FE04F0A3F960483C
:2012A00001F0BEFC00214BF2AC725E4803F0D8F85D4801F0B5FC0BF0BDFC5C4D5C4C10F052
:2012C000040F0CBFA846A0460BF0BCFC012814BF2E4626460BF0AEFC10F0020F0CBF2F46D7
:2012E00027460BF0A7FC10F0080F08BF2C4632463B46009441464F4803F0B2F800214E4894
:2013000004F0A2F803F09AFD03F03CFE0220FFF75BFF4A4803F0A4F8494B4A4C186801F05A
:201320007FFC494803F09CF8484B186801F078FC474803F095F82168464803F091F8E469B3
:20134000A04720B1A0470146434803F089F80A2001F05EFC00250CF029F904A808213F4C90
:20136000DFF81881039501F091FC9DF817209DF8167004AB03CB42EA0727D8F82C6020604D
:20138000616002204AF6CD31B04739460320B04719210120B047082204A9D8F834300B2014
:2013A0009847D8F8283003A90120984703992C4803F056F82B4B39462B481F8003F050F8E7
:2013C0002A4B626821685A6019600BF0D3FC2946274804F039F80220FFF7F6FE294625485D
:2013E00004F032F8244803F0C1FD01F0EBFB0120FFF7EAFE03F098FF044601F0FBFB14F01D
:20140000FF0FF7D101F0A2FEF4E700BFD801001000400340080009400C4009402C200940E4
:20142000D4210100F821010010220100D0210100CC2101002422010014050020582201008E
:20144000E024010030280100602201007027010068220100702201007422010040490020B5
:20146000982201008C3E0020AC220100604000208C0500203804002060210100EC23010099
:201480002DE9F04105888046772D30D07E2D27D025B1002303800320BDE8F08103F01CFFA9
:2014A0002D4E2E4B2E4C326818702560002A41D02B462C4D1F46EF549368802000219847AF
:2014C0002368013356F823202360002AF3D1DBB225490B707723A8F800300120BDE8F08134
:2014E0001E4B1B788B4217D00120BDE8F0811E4F1B4C3A781D4E002393423360236007DA25
:20150000184DE956002917DB013393422360F7DB3368002BEFD1DDE7114C124D124F134EE6
:2015200023683268E85C511C00F07F003A78E8543160E9E71346CBE70849074A097852F89F
:201540002320002003F052FF0028E9D17E23A8F800300120BDE8F08148040020684900201D
:201560000C070020D03E0020A43E00201007002010B40E4B1C78BCB10D4A136898424FF0C8
:20158000000304D106E052F8041F884202D00133A342F8DB074A0848D15C61F07F01D154D4
:2015A0005DF8044B03F070BF2346F3E7A43E002048040020D03E00203804002008B500F07D
:2015C00025F8024B00221A7008BD00BFA53E0020034B1A78024310461A7000F031B800BFD1
:2015E000A53E0020034B1A7822EA000210461A7000F026B8A53E0020034B1A784240104691
:201600001A7000F01DB800BFA53E002010B5094B1A6872B90122084C1A6023680A20DB6B07
:20162000984723680F20DB6B9847044B4FF404421A6010BD14070020B4010010A0200240CB
:20164000094A0A4B1070C20748BF4FF480624FF40441196048BF43F8102C830703D5044B3D
:201660004FF400421A607047A63E0020A020024090200240813801289ABF024B1868002094
:20168000704700BF58070020024B032202481A60FFF76EBF58070020CC22010010B5772131
:2016A000044682B0002001F07BF84CB98DF807400DF107010122F4200DF03AF902B010BD6D
:2016C00025238DF80730F3E730B5802885B016D0812810D11D4C206878B151B30120FFF7C5
:2016E000DDFF1B4803211B4A002303F0E1FB0220206005B030BD154B186805B030BD134C0B
:20170000012500207721256001F04AF81249182288200DF0FFF8B62304A901F8013D2A46D5
:20172000E0200DF005F90020FFF7B8FF206805B030BD0748019103F0FFFB01990846FFF70B
:20174000ADFF0120206005B030BD00BF580700203807002089160000200700202DE9F041D0
:20176000544B05461B68032B40F09880431E012B00F29480504C0023184677212360A38098
:2017800001F00EF82146F72006220DF0C3F800287CD0E278494B20796179120342EA0012CC
:2017A000188842EA1112C0EB121101FB01F1B3F904700E134000B3F90210C0EBD20207FBBE
:2017C00006F601FB02F1B61306EBE1214A10A2F57A42961006FB06F6B3F90870B3F90AC078
:2017E000701307FB02F700FB0CF0B3F90EC07F100CFB02F207EBE0008014DF88B3F910C027
:2018000000F50040520007FB00F0F6120CFB0626227894F80180B3F90CC0A77812034FEA88
:201820000C4C42EA0814C01399610CEBA60644EA171427D06442A4EB263640F6354202FB0D
:2018400006F202F1434202F5A002002AABBF5200B2FBF0F2B2FBF0F25200D00800FB00F066
:20186000B3F91470B3F916609408400B07FB04F400FB06F0B3F91230641304EB2030184444
:2018800002EB2010012D0DD0BDE8F081204606210DF062F84FF00040BDE8F0814FF0004012
:2018A000BDE8F08101EB810101F180000012BDE8F08100BF58070020180700202007002046
:2018C000813801289ABF024B18680020704700BF80070020024B032202481A60FFF748BE91
:2018E00080070020DC22010010B544210446002000F056FF064B002C14BF1024002402209F
:201900001C8019460246BDE810400DF011B800BF8E3E002010B5802882B017D0812811D10D
:201920001D4C206880B1002929D00120FFF7DCFF1A4824211A4A002303F0BAFA02202060FA
:2019400002B010BD144B186802B010BD154C012023689B6B9847236801209B694FF4804104
:20196000984723684FF08041DB69012098470020FFF7BAFF084B0120186002B010BD074830
:20198000019103F0D9FA01990846FFF7ADFF0120206002B010BD00BF800700206007002058
:2019A000D5180000B401001038B5344B04461B68032B07D1820705D003280FD0012805D0D0
:2019C000022807D04FF00043184638BD2C4B1B68184638BD2B4B1B68184638BD2A4D002001
:2019E000442100F0DDFE2946042002220CF092FF70BB264D254804210CF0AEFF00202C78D6
:201A00006978AA78EB7841EA042443EA02230028D8D098080FF0C0FB4FF074510FF010FC82
:201A20001B490FF00DFC0FF05BFD154B154D1860A0080FF0B1FB4FF074510FF001FC1449F9
:201A40000FF0FEFB0FF04CFD01232860184638BD2B885BBA2B805B040C4DCBD501202946EC
:201A600002220CF057FF0028C4D02046A91C02220CF050FF0028C2D1BCE700BF80070020D6
:201A80005C070020880700208E3E00208407002000007A44014B1868704700BFAC070020AA
:201AA00070B50F4C054682B045210020266800F077FE75B906F002064FF486532660ADF83D
:201AC00006300DF10601022201200CF031FF02B070BD41F2C2020123ADF806202360F0E73B
:201AE000AC07002000B5002083B0452100F058FE01200DF1060102220CF00CFFBDF9063022
:201B0000002B08DB08481021084A002303F0D0F903B05DF804FB0648FFF72AFD054B02221F
:201B20001A6003B05DF804FB8C070020E51A0000FC220100AC070020802810B50C460CD0E5
:201B4000812808D171B90D4803F0F6F92046FFF7A7FF204610BD002010BD0020FFF7A0FFCB
:201B6000002010BD0120FFF79BFF04481021044A002303F09DF9012010BD00BF8C070020F0
:201B8000E51A0000813801289ABF024B18680020704700BFD007002038B5114C114A237871
:201BA00003211160ABB1104D0020432100F0F8FD0421284600F004FD20700020014600F003
:201BC000EFFD28886A880949094B40BA52BA08801A80012323700748BDE83840FFF7C8BC0C
:201BE000A73E0020D0070020D4070020903E0020923E00200C23010030B5802883B023D02D
:201C000081281DD1234C2068E0B100293AD0224D2B785BB14321002000F0C2FD002000F011
:201C2000ADFC28700020014600F0BAFD1B4803211B4A002303F03CF90220206003B030BDDC
:201C4000144B186803B030BD164B0024164A174D20461C60432114802C8000F0A1FD02A9FD
:201C60001023022021F8023D02460CF061FE0A4B21461870204600F093FD064B0120186000
:201C800003B030BD054803F057F90120206003B030BD00BFD0070020A73E0020B007002041
:201CA000991B0000D4070020923E0020903E002008B5174B1B78032B28D8DFE803F01E15CA
:201CC0000C020EF05FFE00224FF07D530EF0C0FE0FF058F908BD0EF055FE00220D4B0EF0D0
:201CE000B7FE0FF04FF908BD0EF04CFE00220A4B0EF0AEFE0FF046F908BD0EF043FE002256
:201D0000064B0EF0A5FE0FF03DF908BD002008BDAB3E00200000303F0000203F0000103FCC
:201D2000813801289ABF024B18680020704700BF00080020024B022202481A60FFF718BCDE
:201D4000000800202423010010B50C4C0120682100F026FD3F23214601226C2023700CF032
:201D6000E7FD21464F236B20012223700CF0E0FDBDE810400020014600F012BDAC3E002067
:201D8000802838B50BD0812806D111F03F012DD1294B1B68DB043BD4284B186838BD284CD3
:201DA000072023689B6B9847236807209B694FF40051984723684FF080410720DB6998478E
:201DC00023680C20DB6B984723680C209B6A4FF480614FF4407298471A4A4FF480501A4B97
:201DE0001060164900221A60086838BD1648174B124D4FF48052016001241A60144808215A
:201E0000144A00232C6003F053F82C60204638BD0D4B0F48196003F08FF8FFF795FF0E4A0C
:201E2000136813F00103FBD1044A06494FF4805013600860106838BD802002400008002052
:201E4000B4010010A02002400408002090200240E0070020851E00000428004010B5084C6E
:201E60000120682100F09CFC214601223A200CF051FD0020014600F093FC207810BD00BFF8
:201E8000A83E00202DE9F041334C236813F0380F49D1324C03F03F06257865BB4EB9FFF717
:201EA00053FFBDE8F0412E4805212E4A002302F0FFBF2D4F0120682100F072FC09233946E4
:201EC00001226B203B700CF033FD3F23394601226C203B700CF02CFD244901221C202570BC
:201EE0000CF026FD39463A2001220CF013FD2846294600F055FCF6B22670002ECFD01A4C2C
:201F0000F64301206821267000F04AFC214601226C200CF00DFD0020014600F041FC144806
:201F20000AF0B6FCBDE7134E3278002AB1D00F4F0025012068213D7000F032FC39461C20E8
:201F400001220CF0F5FC29460746284600F028FC07B1357023689CE704080020AA3E002094
:201F6000E0070020351D0000AC3E0020A93E002080380100AB3E002008B5034B1B685B68E4
:201F80009847C0F3804008BDB401001028B1012806BF054BD86800207047044B186800F078
:201FA000010080F00100704708080020C020024008B100207047034B1868C0F3001080F015
:201FC00001007047C0200240813801284FF0000000D97047FFF7D0BF8138012801D9002015
:201FE00070470420FFF7C8BF802838B5144609D0812806D1D9B9184B10461B685B6B9847CE
:2020000038BD38BD01219140134D144A2B68116020469B6B98472B6820461B680021104ADF
:202020009847E0B20F49BDE8384001F00FBA01219140094D094A2B68116020469B6B984715
:202040002B6820461B680021054A98472B6820461B6B984738BD00BFB4010010E02002409C
:20206000004007208120000008B50022FFF7BCFF012008BD08B50422FFF7B6FF012008BD6E
:2020800038B510B1042814D038BD134C204603F045FA0028F8D02046042103F02BFA0F4BA9
:2020A0001B6813F001050CD100F03EFCE560A06038BD4FF480414FF08052BDE8384000F031
:2020C00071BF00F031FCA368C31AE3600448BDE83840FFF74DBA00BF08080020C020024011
:2020E00044230100024B1868C0F3C000704700BFC02002408138012808B501D9002008BD42
:20210000034B03201B685B689847C0F3804008BDB4010010802810B509D0812805D1134B09
:2021200003201B68E9B95B6B9847012010BD0F4C032023685B6B98470D4B0E4A1B680821BA
:202140001160DB694FF4A060984723680A4A1B680320002198470320084901F077F901202D
:2021600010BD1B6B9847012010BD00BFB4010010B8010010E02002400020032081210000CB
:2021800008B5074803F0CAF900B908BD0548FFF7EFF9BDE808400248402103F0ABB900BF26
:2021A000180800206C23010010B5064C042023685B699847236804205B6B98470128F9D19F
:2021C00010BD00BFB8010010FFF7EEBF032808B503D0BDE8084000F017B90CF09BFC104BB1
:2021E00000219B68812098470E4B00219B68812098470D4B00219B68812098470B4B0021CB
:202200009B68812098470A4B81209B6800219847084B4FF480521A60BDE8084000F0F4B8D7
:20222000CC220100FC220100DC2201000C23010024230100A020024070B50AF021FB064690
:20224000FFF7B2FF3C4B4FF4A0601B68DB6998473A4B01213A4A196013689B07FCD5394C50
:2022600000F0A4F80CF050FC0CF044FC364801F0BBF8236819209B6B984723684FF4005164
:2022800019209B699847236818209B6B984723684FF4005118209B699847236817209B6B78
:2022A000984723684FF4005117209B69984723681B209B6B984723684FF400511B209B69FD
:2022C000984723681E209B6B984723684FF480411E209B69984723680D20DB6B98471B4A7F
:2022E0004FF400552368156000214FF480729B6A0D209847236802209B6B98472368294653
:202300009B690220984723680B209B6B9847236829469B690B20984723681D209B6B984768
:20232000236829469B691D20984706B170BDBDE870400AF0A9BA00BFB801001028200860B5
:2023400028200840B40100106C040020A020024010B50A4B0A481B685B68984710F00C0FEA
:20236000044605D0074B04221A6002200AF090FAD4F1010038BF002010BD00BFAC01001080
:20238000002000400428004008B5064B02201B685B6B9847012803BF034B186800F001006F
:2023A000002008BDB80100106020084038B5104D02202B685B6998472B6802205B6B9847AB
:2023C000012804460A4BF7D11B684FF44070DB699847084B084A1C6013689B07FCD5074B73
:2023E00007481B6807491B680122984738BD00BFB80100102820086028200840AC010010BC
:2024000000200040006CDC02214B10B5FF221A70FFF7BAFF20B11F491F4A00230B601360E4
:202420001E4B4FF440701B681B6A98471C4B01211C4A196013689B07FCD51B4C08202368E9
:202440009B6B984723684FF4005108209B699847236809209B6B984723684FF4005109208C
:202460009B699847236805209B6B984723684FF4804105209B699847236806209B6B9847B7
:20248000236806209B694FF48041984710BD00BFC20600200428004010040542B8010010A0
:2024A0002820086028200840B40100102DE9F0472E4A2F4B1278064652001A6000782D4A47
:2024C0000F46986013682B4C5B06FBD40323236002200AF0DDF92368DD07FCD4FFF738FF86
:2024E000012F03462ED950B3344614F8012F07F1FF3ADFF88490A31B53454FF00205DFF814
:202500007480C9F8002009D3BD421DD214F8012F0135A31B5345C9F80020F5D20123C8F8C8
:20252000003002200AF0B4F9D8F80030D807FBD4FFF70EFFBD42034604D20028E6D10020D4
:20254000BDE8F087002BFAD00A4C0523236002200AF09EF922461368D907FCD4FFF7F8FE37
:20256000044A13685B06FCD4BDE8F087AD3E002000280040042800400828004010B50C4BDA
:202580000C491A780C4B54000C4A0C60186013680A4C5906FBD40723236002200AF078F936
:2025A0002368DB07FCD4BDE81040FFF7D1BE00BFAD3E002000280040082800400428004056
:2025C0002DE9F84F274B284A1C78284B640044F001048146884614601E68244D16F04006CA
:2025E000FAD10B232B6002200AF052F9DFF880A0AB4608F1FF370124B74216DD1CB32B6866
:20260000D807FCD4FFF7A4FE04460028F4D0DAF80020092309F8062001360220CBF80030AC
:20262000F6B20AF035F9B742E8DC64B10F4C0523236002200AF02CF922461368D907FCD41E
:20264000FFF786FE10B90020BDE8F88F084BC8441B68064A08F8013C13685B06FCD4BDE82B
:20266000F88F00BFAD3E00200028004004280040082800402DE9F04F454E464C3578074651
:202680006D00256090F800E0434883B00D4693469846C4F808E003683F4C5906FBD403232A
:2026A000236002200AF0F4F82368DA07FCD4FFF74FFE012D03461FD918B9002003B0BDE858
:2026C000F08FDFF8D8A0344C4FF0010917F8013F0220CAF80030012323600AF0D9F8236803
:2026E000DB07FCD4FFF734FE09F10109A945034602D20028E1D0E9E7002BDED03478264A53
:202700002448640044F001040B2104601160022014460193214E0AF0BBF8019B274608F181
:20272000FF354FF00009A94516D2002BC5D02368D807FCD4FFF70CFE03460028F3D0316880
:2027400009220BF8091002203A6009F1010901930AF09EF8019BE6E7002BAED00E4C0523BA
:20276000236002200AF094F822461368D907FCD4FFF7EEFD0028A0D0084BD8441B68064AE0
:2027800008F8013C13685B06FCD4012096E700BFAD3E0020002800400428004008280040A4
:2027A0002B4B10B504461970FFF7EEFDA8B1294B1A78A24210D02848284900221C70026016
:2027C0000A601B7863B1012B26D0254B25481B6825491B680122984710BDFFF7E7FDE6E7FF
:2027E000224C052023684FF4C0419B699847236806209B694FF4C0419847236805210622E3
:202800001848DB6C9847236808209B6B9847236809209B6B9847D8E7144C082023684FF4EC
:20282000C0419B699847236809209B694FF4C04198472368082109220A48DB6C98472368F7
:2028400005209B6B9847236806209B6B9847BCE7AD3E0020C206002004280040100405427B
:20286000AC01001000200040006CDC02B401001010B5064C042023685B6998472368042014
:202880005B6B98470128F9D110BD00BFB8010010F8B51A4900220023C1E90023184B0420A2
:2028A0001B685B6B9847012801D0FFF7E1FF144B00201B68DB699847124B0121124A1960A7
:2028C00013689B07FCD5114A11491368096823F4807323F001030F4C13600B6820460E494A
:2028E00098470E4D0E490F4B0427312640F22120012227602E6008601A60F8BDC80600203B
:20290000B801001028200860282008400C000140C801001000000140002100043C000140A5
:20292000080001400400244310B40949094C0B68226808688342FAD1DB01074903EB5262AD
:202940000023C1E900235DF8044BD1E900017047082009400C200940C806002010B50B4984
:202960000B4C0B68226808688342FAD1DB01094903EB52620023C1E9002302F0E3FB00B9BA
:2029800010BDBDE8104002F0AFBB00BF082009400C200940C806002010B509F071FF034B0A
:2029A0001C6808B909F070FF204610BD08200940704700BF0146012000F052B80AF028B913
:2029C0002DE9F04109F05CFF1D4D1E4B1E4F2A680124002680464FF480314FF480703E60B4
:2029E0001C601860196013683046232198472B6820461B68242198472B6802201B68252138
:202A00009847124B124A196841F4E021196016600AF0FEF80F49104B104A096800F50070A5
:202A200010601C603C600B6914209847B8F1000F01D0BDE8F081BDE8F04109F025BF00BF76
:202A40008401001004200940000024430020094008200940B0010010A00224431C200940E4
:202A6000431E012B10B41BD9042802D05DF8044B704700231A4610F004001CBF0E4C21607B
:202A800012B10E4A0121116013B10D4B01221A600028EBD00B4B01221A605DF8044B70479E
:202AA00010F0010202D0084B0122196010F002031CBF064C2160DEE7202009408002244368
:202AC000A0022443C0022443182009401C200940014B1868704700BF2008002008B5FFF781
:202AE0006DFF184B1860FFF739FF174B1B686BB9164B1B68E3B9164B1B6833B11549164B51
:202B000000204FF4803208601A6008BD124B4FF480721A600AF07CF800F205200F4B20F4FA
:202B2000FF7020F001001860084B1B68002BE2D00B49094B0020012208601A6002F0C6FC69
:202B4000D9E700BF20080020A000244380002443C0002443C0022443042009401C2009407E
:202B600080022443820702D5034B01221A60C30700D4704709F088BE000C084008B509F083
:202B80007FFE074B1A68012A03BF0649022219600022002814BF104642F0010008BD00BFE1
:202BA000000C084051E5CC1A03490448044B012208601A60704700BF00000840FFFF0F00EE
:202BC000000C084038B5FFF7D9FF064C064D0749074A012325600B601360BDE83840FFF706
:202BE000C1BF00BF00000840FFFF0F000C0008400401004303490448044B012208601A60B9
:202C0000704700BF00000840FFFF0F000C00084010B50446C0B200F07DF9204610BD00BFBC
:202C200038B50546002403E0285D00F073F9013428460FF0BBF98442F6D30A2000F06AF912
:202C400000F07AF90128FBD0204638BD70B50446B0B10078C0B1A9B16618002504E014F81C
:202C6000010F38B1B44205D000F054F9631C05F10105F4D100F060F90128FBD0284670BD3B
:202C80000546F7E70D46F5E70546F3E710B40C4B0C4C13F8012FFF2A0FD1A342F9D10A4AFD
:202CA00041B10A44002312F8014C013AC45401338B42F8DB5DF8044B7047044AF0E700BFF4
:202CC000C7FF0100CFFF0100F0120050C8FF010038B50C4D02202B685B6998472B680220F1
:202CE0005B6B984701280446064BF7D11B684FF40070DB699847044B044A1C6013689B0714
:202D0000FCD538BDB801001028200860282008402DE9F0432D4D83B0FFF7DAFF2B68DFF8B5
:202D2000D490DB682A489847D9F80030294C5B69152098472368DFF8C080274E23F4FE63BE
:202D4000D8F8002023F0020340F2F27723603760D36B1D2098472149D8F800204FF0FF3391
:202D60004FF0005008600093D2F840C018481C211D22E0472B6816485D6819494FF4E1328E
:202D80006023A847174B184A142119601168174B41F0100111601A6840F2013540F2011094
:202DA0001349002A14BF2A4602460A6037601B6843B12268D9F8003042F0500222601B6975
:202DC0001520984703B0BDE8F08300BFD00100100010004038100040441000409020024016
:202DE000006CDC02341000402C1000402408002030100040B0010010B401001008B5064B29
:202E000002201B685B6B9847012803BF034B186800F00100002008BDB80100106C2008403C
:202E200038B50446FFF7EAFF18B1264A13681907FCD4032C03D0244B1B6803B138BDFFF745
:202E4000DDFFF0B9214D4FF400702B681B6A9847032C2CD01E4B01211E4A196013689B0721
:202E6000FCD51D2000F0DCFA1C2000F0D9FA4FF0FF3000F0D5FABDE838404FF0FF3000F0D7
:202E8000CFBA154B15481B68DB689847144B15201B685B699847134A1349136840F2F270C5
:202EA00023F4FE6323F0020313600860CAE72B684FF400709B6A98472B684FF400701B6B00
:202EC0009847C7E71810004024080020B80100102820086028200840D00100100010004077
:202EE000B0010010381000404410004010B509F0C7FC0446054800F077FA054B00221A6090
:202F000004B110BDBDE8104009F0BEBC800400202408002010B50446FFF770FF08B9FFF7AC
:202F2000F7FE034B21461B680248DB69984710BDD00100100010004008B5FFF75FFF18B11F
:202F4000024B1868C0F3C00008BD00BF1810004038B5FFF7BDFE0D4B0D4A1B6840F2F271E0
:202F600013F0500F11600CD00A4C0B4D05E02B681B699847094B1B6823B923680848DB06AA
:202F8000F5D538BDC0B29847F7E700BF401000404410004018100040D001001024080020CB
:202FA000001000402DE9F047402382B000240E46174601930546009409F062FC494BDFF8D5
:202FC00064E101204FF480714FF48032DFF85881CEF80040186019601A60D8F800302046DB
:202FE0001B6801343F219847042CF6D1DFF838810024D8F8003020469B6801343F21984752
:20300000032CF6D1384B1B68FFF7F4FD374802F0FFFA044630B1A368032003B198472468EB
:20302000002CF8D16B1C0CD0314BAA0013430021304A1960136847F00052324328461B683E
:2030400098472D4EDFF8E4A000243368CAF800409B690720984768460BF0A6FE00F0B0FA09
:2030600000F05EFA254A264B1068316820F0030010601A68234D22F00F021A608B693820B9
:2030800098472C6001200BF0AFFEDFF8A490DFF8A4E01D481D491E4A4FF00108124F1D4B52
:2030A0002C60C9F80040CEF8008004600C60CAF8004014603A681968174A21F003011268E4
:2030C00019605368154803219847154A33682C60C9F80040C2F800809B6B3A68984702B062
:2030E000BDE8F087042009402C20094028080020001A4442B4010010B801001000100940DB
:20310000081009404010094040012243440122430800094024220840D8010010004003401A
:203120001810094000002443840100100C4009402004224388010443034B1A6822F004024C
:203140001A6030BF704700BF10ED00E02DE9F84309F096FB02F040F918B1BDE8F84309F00B
:2031600093BB914802F054FA0225044648B1636823B19847A84228BF2846C5B22468002C92
:20318000F5D1FFF71BFC894B06461B68002B40F09A809846994601F0D5FF002840F0C88022
:2031A00004460746012D00F0A780022DD5D1B8F1000F00F09980A9F14101002C00F0918094
:2031C000CB1B002BC0F28D8039460220FFF748FC754802F01DFA06250446002800F0C480AD
:2031E000A368022003B198472369246825EA0305002CF5D1FFF7FEFC6B0705F0060400F19C
:20320000B680002C40F0BA8000F0DAF900200BF0EBFD674A674B1168674821F0030111600B
:203220001968026841F00F011960936939209847624A634900231360184613600B6009F092
:203240002BFB062C00F0A2805E4C5F4D5F4E2B682268336822F0030222605D4803215B6824
:203260009847554B1B689B6B98472B6809F05CFC584A33680021116055485B680121984753
:203280002168554B41F00301012221601A602B6809F080FC0BF074FDFFF760FBFFF7AAFC51
:2032A000414802F0B5F9044628B1E36803B198472468002CF9D100F051F909F0E5FABDE8AB
:2032C000F84309F0E1BA454BD3F80090C0EB0903022B44D4A3F28F23002B55DB4FF001084E
:2032E00059E70420FFF7BCFB002C7FF46DAF711E0220FFF7B5FB6BE7002C4BD06FF00703A9
:203300009B1BFB424CD406F58036F31B37EA230728BF374639460220FFF7A2FB304B1A68FB
:2033200022F004021A6030BFBDE8F84309F0ACBA01F010FF0746FFF7F7FA3F1A002F1ADD1A
:20334000FFF7C6FB274B00EB47279B1BFB424FF001047FF527AFA54228BF254622E7002305
:20336000AB4238BF1D46B9E7FFF744FC06241A4B00221A6045E700242746ECE70E4B2046B6
:203380001B689B6998473FE70123E9E7022009F009FA59E706F580310220FFF761FBBDE78B
:2033A00006F10807B6E700BF28080020800224430010094008100940B80100104010094056
:2033C00020042243242208402C200940D801001000400340800104430C40094018200940F7
:2033E00010ED00E071FDFFFF0146014802F012B9280800200146014802F060B928080020FC
:2034000008B5054802F000F9044B03201B6820211B68984708BD00BF2808002084010010B6
:20342000431C10B504460BD0064B4FF4C0421B6800211B689847044BA400234300221A60B2
:2034400010BD00BFB4010010001A444238B504460D4609F015FA0121A140054A054B1160D6
:2034600043F8245000B138BDBDE8384009F00CBAE02002402C08002008B5074B002103F161
:20348000800243F8041F9342FBD1044B10201B681B69984708BD00BF28080020B0010010B1
:2034A000F8B5094B094F1D6800241D60012606FA04F32B42E0B203D057F8243003B1984767
:2034C0000134202CF3D1F8BDE02002402C08002000B585B00022412302A8029203930BF01D
:2034E00063FC042009F09EF9032810D00420032109F070F9042009F095F90328FAD10090D3
:20350000002106484FF040521C2309F001F902A80BF0A2FC05B05DF804FB00BF00A00C4042
:2035200000B583B00022412368468DE80C000BF03BFC042009F076F9022808D004200221E7
:2035400009F048F9042009F06DF90228FAD168460BF082FC03B05DF804FB00BF00B583B0E4
:203560000022412368468DE80C000BF01DFC012009F058F9012803D00320012109F02AF9BA
:2035800068460BF069FC03B05DF804FB00B583B00022412368468DE80C000BF005FC01205C
:2035A00009F040F9012803D0044B986B09F080F868460BF051FC03B05DF804FB48000010C5
:2035C00010B582B0412368460024019300940BF0EBFB0320214609F0FDF8012009F022F908
:2035E00018B1044B986B09F063F868460BF034FC02B010BD4800001008B50BF06DFC30B1AA
:20360000044B5B88022B0CBF0120022008BD022008BD00BF300B002070B582B00BF05CFCCD
:2036200040B9134801A90BF05FFC01280AD0002002B070BD0E4C6388022B08BF0120F0D119
:2036400002B070BDFFF7BAF96FF03F05084C2D1A03E0FFF7B3F9C54207D56388044E022BD2
:20366000F7D1023B58425841EAE77388F9E700BF300B002008B5B32994BF0A46B4220146F3
:2036800002480EF06DFA002008BD00BFC20B00202DE9F041044609F0F3F8064634B1154AE5
:2036A000154B12681A60AEB1BDE8F081114B124FD3F800803A6818F180444FF0000545F150
:2036C000000500239D4208BF944207D3C7F80080002EE9D1BDE8F04109F0D6B8FFF76EF98B
:2036E000064B07491A68086001321A60C7F80080EEE700BF04300440240B0020AC08002024
:203700002C0B002030B589B002A8182140F602020BF030FE154B9DF81A201B689DF81B404C
:203720001979134D61F305028DF81A20597902A861F387128DF81A209B7901A963F34704F6
:2037400001238DF81B4007958DF816300BF0CCFB012802D0002009B030BD02A80BF014FCC6
:20376000431E5842584109B030BD00BFD4040020A804002008B5FFF7C5FF012801D00020FB
:2037800008BDFFF749FFC0B208BD00BF70B50E4D0E4E2C68002006E02379022B06D024688F
:2037A0002B68A3420ED02379032BF5D133780120002BF4D1064801F067FE24682B68012083
:2037C000A342F0D170BD00BFF40A0020AE3E00209006002010B582B00BF0C6FD04460BF07D
:2037E0007BFB08B902B010BD084801A90BF07CFB0128F7D1638803F44063002BF2D1638858
:2038000003F44063002BF5D0ECE700BF010001040B2807D00C2801D001207047042A11D090
:2038200002207047082AFBD10029F9D0094B0139A3F1080013F8012D834201F8012FF9D1A4
:20384000002070470029EBD0034B00201B680B60704700BF600B0020F00A002010B584B03D
:203860000BF03AFB08B904B010BD002442F2034302A801A902940394ADF808300BF034FBB0
:203880000028F0D09DF90A30803302D0204604B010BD9DF80C00C0F38100431E584258419B
:2038A000E1E700BF10B582B00BF016FBF8B1114C6388022B1BD1FFF7D1FF0028FBD101A910
:2038C0000D480BF011FB02E06388022B03D10BF003FB0028F8D1638842F20242934206D0C6
:2038E00042F207401B1A5842584102B010BD012002B010BD300B00200100010410B50BF0A5
:203900008FFD012821D0FFF7A9FF04460028FAD1FFF7C8FF0BF018FC0D4B0E491A794C804C
:20392000022A08BF1C710C4B1A79022A04BF00221A710A4B1A79022A04BF00221A71084BAA
:203940001A79022A04BF00221A71012010BD00BFB0080020300B002040090020D0090020F6
:20396000600A002030B585B00BF0B6FAB8B10D4B5B88022B13D1002442F2034502A801A94F
:2039800002940394ADF808500BF0AEFA38B19DF80A305B06F2D09DF80C0005B030BDFF201D
:2039A00005B030BD300B00200B2808B501D0012008BD082A01D0022008BD0029FBD00D4B2D
:2039C000083103F1080011F8012D03F8012F8342F9D10BF081FA0028EED0074B5B88022B03
:2039E00005D1FFF75FFFFFF717FE032008BD002008BD00BF570B0020300B002010B50BF069
:203A00000FFD012809D00BF067FA30B1074B5B88022B02D1FFF722FF08B1002010BDFFF773
:203A2000A1FFFF28F9D0C0F3801010BD300B0020F8B50BF0F5FC012832D0FFF78FFD0BF04A
:203A40004BFA48BB1F4A20482049214B92F805C090F805E04F795E790125882465F3830C64
:203A600065F3830E65F3830765F3830682F805C0106080F805E00160C480D480CC804F7189
:203A80000B601A60DC805E71FFF780FD0BF0F4FBA84207D00020F8BD0E4B5B88022BD1D118
:203AA0000120F8BD0C4B1878003018BF01200BF001FCFFF727FEA842ECD1BDE8F840FFF794
:203AC000ABBD00BFB008002040090020D0090020600A0020300B0020AE3E002070B584B03B
:203AE000072800F2AB80DFE800F01F61262F325C6C04534C21770BF0EFF910B36388022BFB
:203B00001FD1FFF7CFFE012814BF032400240BF0C1FB0020FFF7BCFDFFF77EFD01280CBFC0
:203B20002046032004B070BD01297BD0002973D0022004B070BD424C61860BF0CDF90028D9
:203B4000DCD1002004B070BD3D4C2186D3E731F00703EDD13A4C3B4A257EC1F3400061F3EE
:203B60000005EDB245F00205167860F38205607EC1F3800105F0870563F3C71563F3C7100A
:203B80008E42607625761170B5D12F4B228B184603A95A800BF0A8F9002814BF00200320F8
:203BA000C0E731F00103C3D1C8B2BBE7A1F10B030F2BBDD8224CC9B2A37B8B42C1D0A173A1
:203BC00099E701F115031A2BB2D8204D0C242B461A6E083B91422CDD14F1FF34F8D20BF0DA
:203BE0007BF900289ED005EBC40422796079A17902F03F024FF0000360F3871261F3470376
:203C0000102403A802A98DF80E208DF80F30ADF80C400BF069F994E70191FFF76FFE01994B
:203C200008467FE7FFF704FF01280CBF0020032078E7074B05EBC4021A60D0E7012071E78F
:203C4000300B0020AE3E00201C0B00207C230100D404002070B50C4682B069B1102800F231
:203C60008E80DFE800F066615C577471514B28221D8C8C1915100C00022002B070BD052392
:203C80000B600020F9E76FF014030B600020F4E71A230B600020F0E70B230B600020ECE7B2
:203CA0003F4B00201B780B60E7E73E4B00201B785BB20B60E1E70BF00FF9002861D03A4B31
:203CC0005B88022B08BF00265BD1002240F2034301A869460192ADF804300BF005F901283B
:203CE0000CBF9DF902506FF07F05002E4FD115F1800F256014BF00200320BEE72A4B002076
:203D000093F91C300B60B8E7284B00201B681B680B60B2E7244B00201B8E0B60ADE7224B80
:203D200000205B8E0B60A8E71F4B00209B7B0B60A3E70BF0D1F820B11B4B5888821E5042DE
:203D400050412060002098E70020086095E70022154B0A601A7E02F001020A601B7E5B07D1
:203D6000134B48BF42F00202187848BF0A60002883D00B68002043F004030B607DE701206F
:203D80007BE7FFF755FE012804D106469DE7FFF7B5FDACE76FF07F03236003206DE700BFD5
:203DA000B03E0020AF3E0020300B0020D4040020AE3E0020F0B589B007460BF08DF80028B6
:203DC0004ED0344B5B88022B08BF002648D1FEF7F5FD6FF01F052D1A03E0FEF7EFFDC542B4
:203DE00045D5FFF73BFD01280446F6D000283ED102A8182142F601420BF0BCFA264D274B17
:203E0000FFB28DF817702978069304949DF81430003118BF012164F3030301208DF81430C9
:203E20000BF082FA02A801A90BF05EF828B3287800E040B3BDF80A3003F44063002BF8D09C
:203E4000BDF80A40A4B2B4F5105418BF0124003018BF01200BF07CFAC6B9204609B0F0BD20
:203E6000FFF7E6FD012806D0012009B0F0BD3EB9022009B0F0BD0646A9E728780124E6E7F6
:203E8000FFF73CFDF4E7FFF757F9D0E7FFF736FD2046EAE7300B0020AE3E0020C20B002067
:203EA00010B5B3290C4694BF2246B422014604480DF056FE2046BDE81040FFF77BBF00BF50
:203EC000C20B002038B50BF0ABFA01281FD00BF003F838B9FFF7ACFD01280BD0FFF70EFDC5
:203EE000012038BD0D4B5B88022BF3D1FFF7B6FC0028FBD10546FFF735FDFF280CD000F07E
:203F0000030010F1FF3418BF01240DB9204638BDFFF7F4FC204638BD0124F6E7300B0020AF
:203F20002DE9F04FDFF8448185B007460E46D8F800500AF0D1FF30B14A4B5B88022B02D177
:203F40000020FFF7A5FBFEF739FD474C241A03E0FEF734FDC44208D52B79022BF8D0032BFC
:203F600006D0002005B0BDE8F08F2B79032BF8D1D8F800403D4A237A032B05D9257AEDB259
:203F8000A5F10809B14507DD2368002013602071207205B0BDE8F08F04F109014A46384679
:203FA0000DF0DEFD6A1DEB1CE35CA058DFF8D8B004358BF800300390625D039BDFF8CCA0E6
:203FC0002B4902F03F02B3F1404F8AF800200A680FD98DE80C00FEF7F1FC9DE80C002549A9
:203FE0000968C1F17E4101F57201C14248BF02F1FF3221496FF4BF76F61809684FF0FF3752
:2040000047F10007761A67EBE1770024A41942EB07051A4E290243F60952002341EA146123
:204020002002C6E900450DF081FA154B154A1B7810604BB1D8F80030002219684846C8F843
:2040400000101A721A718DE79BF80010042049B289B209F081FA9AF80010032009F07CFA20
:20406000E8E700BF300B0020FAFEFFFF280B0020AC0800202C0B00203C3D0020D006002054
:20408000AE3E0020F00A0020AF3E0020B03E002010B50AF021FF78B10C4B5B88022B0BD194
:2040A0000020FFF7F5FABDE8104009484FF48731084A002300F0FCBEFFF7BAFC0128F2D103
:2040C0000020FFF7E5FAFFF719FCECE7300B0020FC0A0020914000002DE9F84F364E37485B
:2040E000FFF782F90BF0A6F83046002190220DF013FE0021902232480DF00EFE0021902236
:204100003048314C0DF008FE002190222F480DF003FE2F4F2F4B00252946204680221E604D
:204120003E607D600DF0F8FD0722022363762276294BB4F81880294EFF2101224FF06F0C27
:204140004FF0A60E42F6010B4FF0190A4FF0B90942F202002761A4F800B084F80EA084F815
:204160000F90666184F81BC084F81CE0A176627384F83720A3F8028019711880FFF758FCC2
:204180000128044603D02C462046BDE8F88F14480BF0FEF82046FFF77BFA124A2B46124890
:2041A0004FF4873100F084FE2946104801F04CF92046BDE8F88F00BFB008002094040020B4
:2041C00040090020D0090020300B0020600A0020F40A0020280B00201C0B0020B00B002005
:2041E000E423010091400000FC0A00209006002008B500F091F880B208BD00BF00F014B961
:2042000038B50C4D04202B685B6998472B6804205B6B984701280446064BF7D11B6840F261
:204220000140DB699847044B044A1C6013689B07FCD538BDB8010010282008602820084015
:20424000034B1B68002B0CBF02200120704700BF780C00202DE9F04103880646002B32D0EF
:20426000B3F5847F06D11B4B1B788B4207D00120BDE8F081002303800320BDE8F081164FA4
:204280003B6883B1154B164A1B6802205B68D2F8008098470024221848F1000319461046A7
:2042A0003B6898473C600F4B40F201401B689B6A98470D4B01210D4A196013689B07FCD574
:2042C0000B48FFF797F84FF4847333800120BDE8F08100BFC3060020780C0020CC010010B9
:2042E00004800240B80100102820086028200840D804002008B5064B04201B685B6B984799
:20430000012803BF034B1868C0F34000002008BDB80100103C20084070B5264B1B6893B142
:2043200025490023CA5C244C2AB90133042BF9D10020002170BD2149002201EBC301E25466
:20434000D1E9000170BDFFF7D5FF00282ED01C4A1C4B126813406BB91B4B01221A60186844
:204360000028FCD102464FF4807108F06DFA174B01221A6008F084FA114A06461368DB07F4
:20438000FCD5134B134A1B6802205B681468984700222346141843F1000516B12046294642
:2043A00070BD08F071FA2046294670BDFFF728FFCDE700BF780C00207C0C0020D806002091
:2043C0000880024001000080F09F0240A8025042CC0100100480024038B50E4D00240E4B1D
:2043E0002C6019680D4A21F0010112681960536931209847204622464FF4807108F024FA4F
:204400000122074B2A60197822460648BDE8384000F0ECBFA80250420C800240B0010010D3
:20442000C3060020EC04002010B5074C2378802B00D010BD00F050FF207000210348BDE8A8
:20444000104001F001B800BFC3060020EC04002008B51AB108461146FEF7F8FB002008BDB0
:204460000FB400B583B004AB53F8041B04481A46019300F045F803B05DF804EB04B07047A9
:20448000FC04002038B50446006815460DF068FB236800202B44236038BD00BF0EB430B5AA
:2044A00086B009AB53F8041B084D01901A4601AC04A803930495059400F022F8019B002279
:2044C0001A7006B0BDE8304003B070478544000038B50C46054606E02B68686807491022FF
:2044E000103C984718B9102CF6D80CB9204638BD22462B6868680149984738BD5024010038
:204500002DE9F04F95B0824689460D924FF0000B99F80030002B00F0E880252B00F09C82DF
:204520004C4602E0252B04D02C466378651C002BF8D14D450DD0C9EB050649463246DAF81A
:204540000030DAF804009847002840F02A826378B344002B00F0C9806A78002A00F0C580FB
:2045600001350027A2F12003A946102B1CD8DFE803F0181B1B151B1B1B1B1B1B1B121B0FF4
:204580001B1B090047F01007013599F80120E9E747F00107F8E747F00607F5E747F0080752
:2045A000F2E747F00207EFE7A2F13103082B00F2DB80A2F13003092B00F2D8800135002625
:2045C00006EB860602EB4606A94615F8012B303EA2F13003092BF3D92E2A00F0CC804FF0F6
:2045E000FF336C2A00F0E380682A00F02681782A00F28180DFE812F079007F007F007F0023
:204600007F007F007F007F007F007F007F007F007F007F007F007F007F007F007F007F00AA
:204620007F007F007F007F007F007F007F007F007F007F007F007F007F007F007F007F008A
:204640007F0026027F007F007F007F007F007F007F007F007F007F007F007F007F007F00C1
:204660007F007F007F007F007F007F007F007F007F007F007F007F007F0023027F007F00A4
:204680007F0020021D021A027F007F007F007F007F007F007F007F007F007F007F007F004A
:2046A0007F007F007F007F0017027F007F007F007F007F007F007F007F0014027F00110245
:2046C0000E020B02080205027F000E027F007F007F007F007D000202FF017F007F00FC01A5
:2046E0007F00F9017F007F00F601584615B0BDE8F08F47F4E06707F4E062B2F5806F09F176
:20470000010900F000815CD9B2F5C06F00F03181B2F5E06F00F02681B2F5A06F7FF4F8AE15
:204720000D9B012E1A6803F104030D938CBF06F1FF360026FB078DF8382000F109835046F6
:204740003146FFF7C5FE002840F02B81DAF80030DAF804000EA90122B3449847002840F045
:2047600020810136B344D3E62A2A70D02E2A4FF000067FF434AF99F8012009F10103A2F1E7
:20478000300109296FD809F10201002303EB830302EB43030A788946A2F130000928A3F1CF
:2047A000300301F10101F1D96C2A7FF41DAF99F801206C2A00F0E88009F1010947F06007F1
:2047C00015E7B2F5807F53D0B2F5407F7FF4A0AE0D9BAF4A1968AF4C043317F4804F18BFE8
:2047E00014460D930A460023002900F0F3800DF14A018E46100902F00F0214F802C040EA8F
:204800000370190975460EF801C950EA010C02460B46EFD10DF14B035B1BCDE9060100F069
:20482000DB80DC1C782305F8013C3022232305F8022C05F8033C033D7AE099F80120682A73
:2048400000F0038109F1010947F04007CFE60D9B05F101091E680433002E0D93B8BF47F0CC
:2048600001076A78B8E62A2A00F0F8809946B6E6002BABBF27F0100701250393039517F457
:20488000005507F0E003029500F09080402B00F0538200F2EC80002B00F00B82202B40F0A1
:2048A00032820D9B1A1D0D9293F90020D317002A73F1000CC0F20782CDE9042300250C95B8
:2048C00007F4C053B3F5805F00F09F81B3F5C05F00F0BE81B3F5006F00F06F8100250DF123
:2048E0004E080195DDF804C0039D41F60803AC4507EA030341F20802C0F0E480934200F053
:204900003E820025E2E00D9A156804320D92002D00F0EC812C7834B16A1C11781446013248
:204920000029FAD1641B002B02DB9C4228BF1C46A6428CBFC4EB0606002617F0010704D1DD
:2049400050463146FFF7C4FD58BB2946DAF80030DAF804002246984718BB5C44DFB904EBF8
:20496000060BD5E50D9B1A680433C2F800B00D93CEE5DAF80030DAF80400474901229847E4
:2049800078B90BF1010BC3E599F8022047F0800709F102092BE650463146FFF799FD0028EE
:2049A000DDD04FF0FF3015B0BDE8F08F402B00F0B98173D8002B00F08E81202B40F0A88145
:2049C0000D9B029D18781A1D00210C950D92CDE9040175E70DF14B05302305F8013C04244E
:2049E000013D1FE747F4C85785E647F4106782E647F480677FE647F440777CE647F488579F
:204A000079E647F4813776E647F4007773E647F4024770E647F424576DE647F4A0676AE668
:204A200047F4C13767E647F4B24764E647F4A13761E647F484475EE647F442475BE647F494
:204A4000E13758E647F4C06755E699F8022047F0200709F10209CAE54D467DE50D9B99F870
:204A60000220191D0D911B6809F10209B9E5602B00F01F81802B40F046810D9B073323F068
:204A8000070303F108020D92D3E900230FE700BF6024010074240100A0240100602B00F07D
:204AA0001A81802B40F034810D9B029D073323F0070303F10802D3E900010C950D92CDE97C
:204AC0000401FDE69342CCEB050564D041F6080201999342294452D000242246029868B1A6
:204AE0000C9B002B66D107F00603022B00F01781A448062B08BF012408BF024663189E4285
:204B00008CBFC3EB0606002617F00103029304D1F90640F1EE8035441E464CB11146DAF854
:204B20000030DAF804002246984700287FF439AF102D2F4602D80CE0102F0AD9DAF8003009
:204B4000DAF8040090491022103F98470028F3D027E7002F40F0A2804146DAF80030DAF871
:204B60000400019A984700287FF41BAF019B5B441C44029B2544B3B905EB060BC8E4DDE9D2
:204B800004231343A8D0814A814B17F4804F18BF1A460224A2E7002D08BF012501990024F1
:204BA000224629449AE750463146FFF791FC0028E2D0F6E6774A0124A0E7DDE904010143DD
:204BC00000F0C180DDE904450DF14D0C01966646204629460A2200230CF0A8FC3032327033
:204BE000204629460A2200230CF0A0FC04460D4654EA0502B04606F1FF36E9D10DF14E03EC
:204C0000C8EB0303019E01936CE6DDE90423134300F0B080DDE904230DF14D010C46D00890
:204C200040EA4370D90802F0070202F1300350EA01052370A04602460B4604F1FF34EED15C
:204C40000DF14E03C8EB0303CDE90801019349E6514B524817F4804F18BF1846DDE9042398
:204C6000134370D0DDE904230DF14D01140902F00F0244EA0374825C1D0954EA050C0A70D3
:204C8000884622462B4601F1FF31EFD10DF14E03C8EB0303CDE90A45019323E63A46DAF88F
:204CA0000030DAF804003849984700283FF454AF77E60D9B1A6804330D93D317002A73F15A
:204CC000000CBFF6F9AD504263EB43010125CDE904010C95F4E5029D0D9B0C951A68002163
:204CE000043310460D93CDE90401E9E52C4D062419E6504631460092FFF7EAFB009A002820
:204D00003FF40BAF4DE600200021CDE90401D5E50025002000210C95CDE90401D0E5012421
:204D2000204AEBE60D9B029D18881A1D00210C950D92CDE90401C3E50D9B1A1D0D92B3F92C
:204D40000020D317B3E5002301930DF14E08C9E5DAF80030DAF804000EA90122984700283F
:204D60007FF41FAE50463146FFF7B2FB00283FF4F8AC16E6002501950DF14E08B2E501257C
:204D80000CE700BF94240100402401008C2401008824010090240100602401007424010012
:204DA0009824010044270100F0B5038883B005465BB14A2B04D188291BD0012003B0F0BDA9
:204DC00000230380032003B0F0BD194800F020FC044630B1201DA16800F08CF92468002C9F
:204DE000F8D1144B01221A704A2301202B8003B0F0BD0F48019200F00BFC019A0446002857
:204E0000F2D0031D9A4205D02468231D002CEBD09A42F9D10648214600F050FC064E626996
:204E2000A369376832600BB1E06998473760DBE7800C0020B13E00208C0C002010B5064B6F
:204E4000002406481C7000F0DFFB21460448BDE8104000F0F9BA00BFB13E0020800C0020C5
:204E60000405002070B50E4C049D267882610446C361456136B9A1600A482146BDE8704056
:204E800000F0C8BB084D094B2E6804302B6000F031F92E6021460348BDE8704000F0BABB8D
:204EA000B13E0020800C00208C0C00200405002010B5044C82B024680094FFF7D3FF02B075
:204EC00010BD00BF8C0C002070B5094B04461B783BB1084D084B2E6804302B6000F014F952
:204EE0002E6021460548BDE8704000F093BB00BFB13E00208C0C002004050020800C002082
:204F000070B5094B04461B783BB1084D084B2E6804302B6000F002F92E6021460548BDE880
:204F2000704000F077BB00BFB13E00208C0C002004050020800C002010B50A4B04461B784D
:204F40003BB9C360036121460748BDE8104000F0B5BB043000F008F921460348BDE81040FF
:204F600000F0ACBBB13E0020800C002010B50446006830B1002100F067FA54F8040F0028CE
:204F8000F8D110BD704700BF10B50E4C2368B3B1FDF7CAFC236859681A689B680A44121AF2
:204FA0004BB193E812009B682144091A8A4228BF0A46002BF5D1044B02441A6010BD024AC1
:204FC000136010BD840C0020880C00202DE9F041038805467BB1592B08D1872912D082294A
:204FE00020D059232B800120BDE8F081002303800320BDE8F081254A0120136059232B805A
:20500000BDE8F081214F3B68002BEAD0D9688A4203D025E0D9688A4221D19B68002BF9D1A6
:205020003B60DEE7194F4FF000083C68002CD8D0002604E0A3682646002BD2D01C462046D3
:2050400000F06CFA0028F5D0E0688821224600F0CDF903460E4873B100F016FAEAE73B60CF
:2050600099680029BDD0C86882420BBF89680B4699608968F5E7E360A3682EB1B360C4F8B7
:205080000880FFF781FFD0E73B60F8E7840C00201405002010B50446104800F0F5F910495A
:2050A000E3680A6853B14AB1944218BF134602D10DE09C420BD09B68002BFAD1094BA26066
:2050C0001B680C60E360BDE81040FFF75DBF054B1B68E360BDE81040FFF756BF1405002048
:2050E000840C00208C0C0020014800F0CDB900BF1405002010B5044600F0FCF92046BDE892
:205100001040FFF7C7BF00BF10B5044600F0FAF92046BDE81040FFF7BDBF00BF10B5044677
:2051200000F0F6F92046BDE81040FFF7B3BF00BFC068D0F1010038BF0020704705C8104435
:20514000704700BF024B1868003018BF01207047840C0020024B186808B1024B1868704773
:20516000840C0020880C002010B5114B04461A68904217D04AB1936883420AD02BB19A68B2
:20518000A24207D01346002BF9D10023A360E36010BD1346A2689A60FFF7F6FE0023A36063
:2051A000E36010BD82681A60FFF7EEFEEDE700BF840C00202DE9F843DFF8A480274ED8F8C5
:2051C0000050044685428946376844D0002D34D02B4601E0002B32D01B689C42FAD163B3FA
:2051E000A37BE3B10023A3736DB1AC4228464FF08701224604D0AB7BDB0701D500F032F84F
:205200002D68002DF1D1A3683BB14C4505D0346004F10C00832100229847D8F80050A5426C
:2052200014D04DB12B68A3420BD02BB11A68A24208D01346002BF9D13760BDE8F883BDE875
:20524000F8832B4622681A603760F6E72B683760C8F80030F1E72B46C1E700BF8C0C002068
:20526000900C002070B5836804460D466BB10A4E0220A073346004F10C0098470238012845
:2052800004D9832D02D00123A37370BD20462146BDE87040FFF78EBF8C0C002070B50C4AB0
:2052A0000C4B146800261E7084B1012501E0246864B1E37B002BFAD0A573E67320468221BD
:2052C0000022FFF7CFFF2468002CF2D170BD00BF900C0020B43E0020024B1878421C1A70EE
:2052E000704700BFB53E0020014B1968FFF762BF8C0C002070B407480749084A0023084DFC
:20530000084C8A2603700B6013602E70237070BC704700BFB33E0020900C00208C0C0020E0
:20532000B53E0020B23E00202DE9F041254D2B780BB1FFF7B3FF244E3078D0B1DFF894C0C4
:20534000224F9CF80030013803EB430189007A1801339468C0B203F01F0330708CF8003087
:205360007F5CD2F80480A4B1812F06D0A37BDB0705D42B781844BDE8F0810123A37320469B
:2053800039464246FFF76EFF30782B781844BDE8F0810F4B1C6834B9EBE7A37BDA070AD46C
:2053A0002468002CF0D02B78002BF6D0FFF776FFA37BDA07F4D5204639464246FFF752FFFA
:2053C000EEE700BFB43E0020B33E0020940C0020900C0020B23E0020024A034B10781B78D5
:2053E00018447047B33E0020B43E0020F0B40D4C2378202B12D00C4D5F1C2D780B4E2B4471
:2054000003F01F0303EB43039B00F518F154A86000236A6027701846F0BC70470123184687
:20542000F0BC7047B33E0020B23E0020940C002038B5837B034CDB07256801D5FFF712FFA2
:20544000256038BD8C0C002070B40E4D04462868A04206D038B1034600E023B11B689C42C2
:20546000FBD170BC7047002CFBD0012600232060A673A3810A4620462C60812170BCFFF779
:20548000D7BF00BF900C002038B1837B013B012B03D8024A01231370C3737047B43E0020DF
:2054A000FDF786BA38B5084C0246049D206882E82A0010B12260002038BD08462260FDF756
:2054C00079FA002038BD00BF140E002010B5084C236863B1184600225B68816822609847FE
:2054E000236823B11868BDE81040FDF763BA10BD140E002010B541600446FDF715FA206085
:2055000010BD00BF90E80C0013440360704700BF10B50446FDF708FA206010BD10B50446EA
:20552000FDF702FA94E80C00C2F10102104483422CBF0020012010BDF8B504880546672C14
:205540000CD0792C1BD01CB1002303800320F8BDFFF7C2FE1E4A1F4B10701C601D4C26463B
:2055600004E00A2813D023687E2B2BDD1A4800F0DBF8431CF5D167232B800120F8BD8529F3
:2055800001D00120F8BD134C00232360E6E7114C124F23680E49002603F1010E3A460978C8
:2055A0003046FE54C4F800E0FFF720FF0C4B324618688521FFF71AFF0028E5D179232B8049
:2055C0000120F8BD05495A1CC8543260CEE700BF69490020200F0020980E0020A00E00205A
:2055E0008C0C002008B505480549802200F094F8BDE8084003480021FFF726BF980E002083
:20560000180E00202405002000230360704700BF0068704710B404685CB1A14225D0236840
:205620000BB906E01346994210D01A681C46002AF8D100230B6002680AB911E01A4613684E
:20564000002BFBD111605DF8044B704764B10A68226000221A6000230B600268002AEED101
:2056600001605DF8044B70470C46226823460260EFE700BF30B4056865B1A94219D02B6864
:2056800043B12C4600E01346994207D01A681C46002AF8D10D60016030BC704744B10A680A
:2056A000226000221A6005680D60016030BC70470D462A682B460260F3E700BF10B404686D
:2056C0005CB18C4215D023680BB906E01346994206D01A681C46002AF8D15DF8044B704799
:2056E00034B11A68226000221A605DF8044B70470C46226823460260F5E700BF03682BB141
:2057000000201B680130002BFBD170471846704700B10068704700BF0023013A0160027131
:2057200043718371704700BF10B40346827940791979801A084207D01868541C2140805C10
:2057400099715DF8044B70474FF0FF30F9E700BF2DE9F04702FB0106DDF824A09DF82090A8
:205760001746B0424FF0000204469846CAF8002038BF4FEAD90906D31AE00CF0BDF998B1AF
:205780003C44B4420AD22578A01C41464A46002DF3D1CAF800403C44B442F4D3DAF8003015
:2057A00033B10120BDE8F087CAF80040BDE8F0870220BDE8F08700BF2DE9F043184D83B0CC
:2057C000009104460E469046994601950346032114482022FFF7BCFF01281DD12B680B9F3F
:2057E00018702868D4F800C0E3686168A268C0F802C02C68C0F80E300A9BC0F80610C0F8B8
:205800000A202046A67484F8138084F81C906361A76103B0BDE8F083002003B0BDE8F08325
:20582000280F0020E43F0020F8B50F4F0F4D07F120042F600646603700E01C4614F8203C2F
:20584000A4F11E0031462BB114F80E2CD2080CF053F930B1BC422C6004F12003EDD3002077
:20586000F8BD0120F8BD00BFE43F0020280F002010B5094C82B0802203468DE81400074835
:2058800003212022FFF764FF10B9206802B010BD002002B010BD00BF2C0F0020003F002061
:2058A00070B4104A104E1346326002F1600448F2FE0505E0997C814209D0A2420ED01346DC
:2058C000197803F120020029F7D0411CF2D15988A942F2D13360184670BC704734600020FA
:2058E00070BC7047003F00202C0F0020F0B5114D83B0802203468DE82400044605210E488B
:205900001222FFF725FF012811D12B68187020682A686768A668E168C2F802002868C2F8CD
:205920000670C2F80A60C2F80E1003B0F0BD002003B0F0BD240F0020843F00202DE9F04198
:20594000264D82B0044680208DE821000F4690462346234803212022FFF7FAFE012838D19D
:205960002B68187023682E68D4F804E0A168E268C6F802302B68C6F806E0C6F80A10C6F82B
:205980000E2083F81380DFB918751F46154A0023FF2101200226B8745670D072117011731D
:2059A00053809380D38013819372637B10465373E389D381FFF79AFF286802B0BDE8F08174
:2059C000002239461A7503F1180009F02FFD2F68DCE7002002B0BDE8F08100BF2C0F00200A
:2059E000003F0020300F002010B5094C82B0802203468DE81400074805211222FFF7A8FEE4
:205A000010B9206802B010BD002002B010BD00BF240F0020843F002038B50546D0B10E4B10
:205A20000024FF22022001215870D9721A735C809C80DC801C819C721A70EA7B18465A7324
:205A40002A8ADA81FFF7D0FF044B186000B1047000232B7038BD00BF300F0020240F002062
:205A600038B5134B134C1846236003F1600504E020682030A842206012D20378002BF7D0CB
:205A8000037D002BF4D1183009F0D8FC0028EFD02068FFF7C1FF20682030A8422060ECD35B
:205AA00000F05CFBBDE838400348FFF72DBB00BF003F00202C0F0020444000202DE9F84FDF
:205AC0000A8848F2FE039A42824647D00A78FF2A44D0374CDFF8DC800020C8F80040A31CEA
:205AE00004F16209834605E0203320344B45C8F8004023D013F8022C002AF5D01A7C012A85
:205B0000F2D1628848F2FE05AA42EDD0002215468F5C9E5C05F1080CB74202F1010221D1A5
:205B2000102A5FFA8CF5F3D15D4524BFAB462046203320344B45C8F80040DBD130B350F8A3
:205B4000024F41688268C368CAF80040CAF80410CAF80820CAF80C30BDE8F88F0120FFF733
:205B60009FFEEBE705F1080C7E405FFA8CFC720016F0800F05F10107D6B2D5D1FDB2654581
:205B8000F5D15D4524BFAB462046D1E7AAF80000AAF80200AAF80400AAF80600AAF808006D
:205BA000AAF80A00AAF80C00AAF80E00BDE8F88F003F00202C0F00200B684A688360037A70
:205BC000C26083F002030372704700BF10B5FEF70FFB0446FEF70CFB054B22029B6892B27B
:205BE0001044B0FBF3F203FB120000EB530010BDE83E0020F0B5334E83B001F0AFFC00F07B
:205C000099F80021602230480CF086F830460021F8220CF081F82D4C2D492E4B402718222F
:205C20004FF4A06520203560B46037711A700870FFF7CCFF284C002542F2107E394648F2B4
:205C4000FE07F0602A46009501952B46C6F810E0357520466580A580E5802780FFF7ACFD70
:205C60001E4A04F1080310685168012203C3237A294683F002032046237240F2FF26FFF7D6
:205C80005DFE4FF480732046E3816580A580E58025816581A5812680FFF728FE4FF4007310
:205CA000204626806580A580E58025816581A581E381FFF71BFE0A480C2103B0BDE8F0403D
:205CC000FFF718BAE83E0020E43F0020C0270900E13F0020E03F0020300F002060400020E5
:205CE000444000202DE9F84305460F480F469046FFF78EFC0446A8B1DFF834900BE0D9F868
:205D000000302846394642466668B0472046FFF7FFFC044630B1012DF1D80448FFF7EEFC74
:205D20000346EEE7BDE8F883F0130020880F0020800F002008B50B4809F090FB0A48FFF7C0
:205D400063FC0A4B0A49186807F044F9094809F085FB0948FFF758FCBDE808400748FFF7F1
:205D600053BC00BF540500202C10002050050020215F000034050020880F0020F013002058
:205D800008B540B1044A4168106807F077FABDE8084001F033BC08BD500500200148FFF738
:205DA00037BC00BF2C10002008B1FFF7B1BC704708B501F02BFC38B1044B0146186807F037
:205DC0001DFA003018BF012008BD00BF500500202DE9F04107461A48FFF71AFC044660B32C
:205DE0000026B04694F8245004F10801B5424FEAD502384606D30BF07FFE18B9802D1AD04B
:205E00002E46A0462046FFF783FC04460028E9D1B8F1000F0CD00A48FFF7FAFB804507D0B4
:205E200007484146FFF74AFC05484146FFF722FC4046BDE8F081A046EDE78046F8E700BFAE
:205E40002C10002070B5054600283ED04368002B3BD022482946FFF731FC6B685868FFF7DA
:205E6000D7FB044628B929E02046FFF751FC044620B36368AB42F7D105F108066B68214698
:205E80005868FFF71BFC6B685868FFF7C1FBE8B12946134809F012FB2146124809F00EFBC4
:205EA000114B28461A68013A1A60FFF769FF31460246BDE870400320FFF714BF05F108067F
:205EC000304603F05DFF0024D8E770BD074A6B681068596807F0ACF9DAE700BF2C10002018
:205EE0005405002060050020800F00205005002010B5044688B1406820B90EE04068FFF72B
:205F0000A1FF6068FFF784FB0028F7D1034B21461868BDE8104007F08BB910BD500500200D
:205F2000FFF7E6BF2DE9F84F064610469046894601F06CFB0746002866D03046FFF748FF6C
:205F4000044660B1FFF71CFF30B10146102240460BF0D2FD002854D02046FFF773FFDFF83A
:205F6000E8A0DAF80030142B4ED0DFF8E0B03946DBF8000007F042F90546002847D02F484E
:205F800009F07EFA044600283ED02D482146FFF771FB2C4809F074FA0746002847D04460C7
:205FA00001466868FFF736FBDAF80030656029460133DBF80000CAF8003007F04FF930689D
:205FC0007168B268F368002504F108070FC784F824903146424625766576A576E5762577BD
:205FE0006577A577E57784F8205084F8215084F8225084F823500220FFF774FE2046BDE802
:20600000F88F2046BDE8F88F0020BDE8F88F03463946DBF80000042207F05CF8054600289C
:20602000F2D0002380E82800FFF7EEFAA7E72146024809F043FA3846BDE8F88F5405002075
:206040002C10002060050020800F00205005002010B504460E48FFF7DBFA40B1A04202D165
:2060600006E0844204D0FFF753FB0028F9D110BD21460748FFF722FB2146064809F01EFA0E
:20608000211D0A460120BDE81040FFF72BBE00BF880F00203405002038B505460A48FFF72E
:2060A000B7FA044628B90DE02046FFF731FB044640B1201D294610220BF01EFD0028F3D174
:2060C000204638BD002038BD880F0020F8B50F460546FFF7E1FF0646B8B128686968AA684E
:2060E000EB68341D0FC447B90123337729462A460020FFF7F7FD3046F8BD394606F11400BD
:2061000009F094F900233377F0E7054809F0B8F906460028EFD003483146FFF7ABFADCE70B
:2061200034050020880F002038B50B48FFF770FA044678B1251D284601F042FA03462046B0
:206140000BB15B7C23B9FFF7E3FA04460028F1D1284638BD0546FBE7880F002010B50D4868
:20616000FFF756FA044664B1237F04F1140013B909F064F930B92046FFF7CAFA0446002C2E
:20618000F2D110BD2046FFF763FF0248FFF740FA0446E8E7880F0020013A30B48D18A942B8
:2061A00014D20B461C785A78023302EB042292B2104480B2824284BF013080B29D42F1D81E
:2061C000CB432B4423F0010302331944A94201D030BC70470B7830BC1B02184480B283425B
:2061E00084BF013080B2704730B5134B134C1D7823796279C5EB0323134483B09BB2ADF842
:206200000630BDF8063004F108011844202280B2FFF7C2FFBDF8062005F12801214492B235
:20622000FFF7BAFF18B94FF6FF7003B030BD40BA80B203B030BD00BFB63E00206840002023
:206240002DE9F041DFF8B8802B4998F80020022528328B185E78DFF8A4C0F60028460736EE
:20626000B04244DC8318CC5C234F012C0B4413D018D3632C08D18CF80050204C05F060F898
:2062800098B90120BDE8F08104F0C004802C19D0C02C26D0402C1FD05B7802331844C0B216
:2062A0000546DDE70130C0B2FAE798F80020237828321A4417447A780020134402332370BC
:2062C000BDE8F0818CF8005002440221042009F00FFA0220BDE8F0818CF800500120BDE873
:2062E000F0813B7E8CF80050FF2BEDD1C9E78CF800500020BDE8F08168400020B83E002020
:20630000B63E002070B4C478134B0C44E4B2DC7082780D0A2A44D2B29A70467895425E7009
:206320000078187003D90136F6B25E708EB1C9B28C420CDA0132D2B29A70074B3AB95A788E
:206340000132D2B25A7012B91A7801321A7070BC704701301870EAE75C40002010B5084C60
:20636000014620681430FFF7CDFF064A2368507814789178D2781C7558759975DA7510BD3E
:20638000604400205C4000203A20FFF72DBF00BF08B5FFF72FFC09F09DFA01F0AFFA0F4B20
:2063A000002103F1280223F8021F9342FBD10C4B002103F5F07283F8251030339342FAD13C
:2063C000084A094B4FF48061118003F5A07100221A8220338B42FBD108BD00BF4A4600207B
:2063E00064440020943E0020784600202DE9F041134D2C7814B3134E04F127033788BB42B7
:2064000004DB002333802B70BDE8F081DFF83880A7F12802121B04F128013C1B4144A4B248
:2064200008F128000BF012FCA4F1280319120022348088F8053088F804102A70BDE8F08178
:20644000B63E00205440002068400020F8B51E4A1E4EB2F800C007460CF1010C1FFA8CFCC9
:20646000BCF5FA4F16D29CFA9CF5ADB2184803461C8A2033AC42EFD0B342F9D1144BA2F8AD
:2064800000C000221C8A203344B101320A2AF9D10020F8BD10254FF4805CE7E700EB4216C1
:2064A0003582718257B138687968BA68FB6834460FC4084B30461B793375F8BD3946304628
:2064C00010220BF029FCF4E7943E0020B847002078460020E83E0020074A002332F8021F9B
:2064E000814203D00133142BF8D17047034A002122F81310704700BF4A4600204C46002090
:206500002DE9F04FAC4F042887B03D6827D0AB4ADFF8C8A2DFF8C8B20328CAF80020CBF8D5
:20652000002028D0022834D0052800F0EC8012F83C3CA2F13C0403F0F003602B7DD0DFF8A2
:20654000A4829F4E9F4BDFF8A092002232801A7089F8002088F8002007B0BDE8F08FDFF8E4
:206560008482974E98490B88002B40F0E780954BDFF87492E9E795F8250000F00F00032891
:2065800000F08B80022800F03181DFF858828C4EEDE78E4A8A4ED4788A4B01348A490020DC
:2065A000E4B2D47030801870088064B990780130C0B2907038B950780130C0B2507010B994
:2065C00010780130107095F8250000F0FD02052A00F08980002800F09180AA8B002A00F041
:2065E000578395F82620541E85F82640002A40F0858095F82720082A00F09183441E012CA1
:2066000040F28A83042A9CBF0327974000F00F0094BFFFB230270132441E85F8272085F881
:206620002670072C6AD8DFE814F0590160016601500169005001690050012379604E617979
:206640001B0230885D18854200F33C81207A28310B44FF28338000F035815D4D594BDFF892
:206660008891A0790021363A2A60197089F80010002840F06881012289F800200093FFF725
:20668000DFFD0128009B00F0B981C0F05281022840F05981DFF84C8187E0AB8BDFF844819C
:2066A000002B7FF474AF082388F80030444E02F029FC454998F8002002F0200303F0FF0050
:2066C000002B00F0F482434C0023142285F825300B8084F8352004F1180C3C233380502375
:2066E00084F834309CE095F826200132D2B2782A85F8262004BF002285F82520DFF8E4806D
:20670000DFF8E49021E7344B1B681B8A002B3FF416AF2D492A4EDFF8CC8000230C3A0820BA
:206720000B80CAF80020CBF800203B60338088F80000019102F0E6FB019914E7264A254C60
:20674000126803F1080040BA002192F814E0A085E185118A303321859BB2508AA3F1280117
:206760000D12112784F807E02571608533806171A77104F118050FCA85E80F00294604F17C
:206780000800FFF79BF9154B04F13C0238461A60FFF72AFDC04383B2002B00F08A80E385FA
:2067A00000236022227063706380002388F8003007B0BDE8F08F00BF60440020A4400020B7
:2067C00054400020B63E0020744600201C1400205444002068400020584400205C440020CB
:2067E0005840002050440020B73E0020A2F13C04DFF89C82A24E04F1180C40234FF0020E95
:2068000004270021602284F8350084F83CE084F83D7084F83E1084F83F30338084F8342000
:206820002B7D984F84F830306B7D84F83130AB7D84F83230EB7D84F833302B7E84F82C305A
:206840006B7E84F82D30AB7E84F82E30EB7E84F82F302B8A23856B8A638595E80F008CE8F5
:206860000F0007F1080007F11801FFF727F995F8253003F0100303F0FF02EBB9402387F880
:20688000362087F8373031887F4B28391D79062200230E12104661712671E571A27184F833
:2068A0003B3084F83A302387FFF79EFCC043208776E74FF6FF7372E7002387F8373087F8AE
:2068C0003630E0E7DFF8C88151E66E4CDFF8C08104F1180C112384F83530FEE6694CDFF8C4
:2068E000B08104F1180C122087E7664CDFF8A08104F1180C81E7DFF89881042388F80030BC
:20690000019102F0FFFA01990A88DBF80030CAF80030002A00F0DF81AB8B002B00F0DB81B2
